{
  "address": "0xec44B3001707313e33898245A7f94B2F79Bf3F3f",
  "abi": [
    {
      "inputs": [
        {
          "internalType": "contract IERC20",
          "name": "token",
          "type": "address"
        },
        {
          "internalType": "address",
          "name": "bridge",
          "type": "address"
        }
      ],
      "stateMutability": "nonpayable",
      "type": "constructor"
    },
    {
      "inputs": [],
      "name": "BridgeAddressZero",
      "type": "error"
    },
    {
      "inputs": [
        {
          "internalType": "address",
          "name": "caller",
          "type": "address"
        },
        {
          "internalType": "address",
          "name": "bridge",
          "type": "address"
        }
      ],
      "name": "IsNotBridge",
      "type": "error"
    },
    {
      "inputs": [
        {
          "internalType": "uint256",
          "name": "amountoRelease",
          "type": "uint256"
        },
        {
          "internalType": "uint256",
          "name": "liquidity",
          "type": "uint256"
        }
      ],
      "name": "NoMoreLiquidity",
      "type": "error"
    },
    {
      "inputs": [
        {
          "internalType": "address",
          "name": "owner",
          "type": "address"
        }
      ],
      "name": "OwnableInvalidOwner",
      "type": "error"
    },
    {
      "inputs": [
        {
          "internalType": "address",
          "name": "account",
          "type": "address"
        }
      ],
      "name": "OwnableUnauthorizedAccount",
      "type": "error"
    },
    {
      "anonymous": false,
      "inputs": [
        {
          "indexed": true,
          "internalType": "address",
          "name": "oldBridge",
          "type": "address"
        },
        {
          "indexed": true,
          "internalType": "address",
          "name": "newBridge",
          "type": "address"
        },
        {
          "indexed": true,
          "internalType": "address",
          "name": "owner",
          "type": "address"
        }
      ],
      "name": "BridgeSet",
      "type": "event"
    },
    {
      "anonymous": false,
      "inputs": [
        {
          "indexed": true,
          "internalType": "address",
          "name": "sender",
          "type": "address"
        },
        {
          "indexed": false,
          "internalType": "uint256",
          "name": "amount",
          "type": "uint256"
        }
      ],
      "name": "Burned",
      "type": "event"
    },
    {
      "anonymous": false,
      "inputs": [
        {
          "indexed": true,
          "internalType": "address",
          "name": "sender",
          "type": "address"
        },
        {
          "indexed": false,
          "internalType": "uint256",
          "name": "amount",
          "type": "uint256"
        }
      ],
      "name": "Locked",
      "type": "event"
    },
    {
      "anonymous": false,
      "inputs": [
        {
          "indexed": true,
          "internalType": "address",
          "name": "sender",
          "type": "address"
        },
        {
          "indexed": true,
          "internalType": "address",
          "name": "receiver",
          "type": "address"
        },
        {
          "indexed": false,
          "internalType": "uint256",
          "name": "amount",
          "type": "uint256"
        }
      ],
      "name": "Minted",
      "type": "event"
    },
    {
      "anonymous": false,
      "inputs": [
        {
          "indexed": true,
          "internalType": "address",
          "name": "previousOwner",
          "type": "address"
        },
        {
          "indexed": true,
          "internalType": "address",
          "name": "newOwner",
          "type": "address"
        }
      ],
      "name": "OwnershipTransferStarted",
      "type": "event"
    },
    {
      "anonymous": false,
      "inputs": [
        {
          "indexed": true,
          "internalType": "address",
          "name": "previousOwner",
          "type": "address"
        },
        {
          "indexed": true,
          "internalType": "address",
          "name": "newOwner",
          "type": "address"
        }
      ],
      "name": "OwnershipTransferred",
      "type": "event"
    },
    {
      "anonymous": false,
      "inputs": [
        {
          "indexed": true,
          "internalType": "address",
          "name": "sender",
          "type": "address"
        },
        {
          "indexed": true,
          "internalType": "address",
          "name": "receiver",
          "type": "address"
        },
        {
          "indexed": false,
          "internalType": "uint256",
          "name": "amount",
          "type": "uint256"
        }
      ],
      "name": "Released",
      "type": "event"
    },
    {
      "inputs": [],
      "name": "acceptOwnership",
      "outputs": [],
      "stateMutability": "nonpayable",
      "type": "function"
    },
    {
      "inputs": [],
      "name": "getBridge",
      "outputs": [
        {
          "internalType": "address",
          "name": "bridge",
          "type": "address"
        }
      ],
      "stateMutability": "view",
      "type": "function"
    },
    {
      "inputs": [],
      "name": "getToken",
      "outputs": [
        {
          "internalType": "contract IERC20",
          "name": "token",
          "type": "address"
        }
      ],
      "stateMutability": "view",
      "type": "function"
    },
    {
      "inputs": [],
      "name": "getTokenPoolType",
      "outputs": [
        {
          "internalType": "enum IPool.TokenPoolType",
          "name": "tokenPoolType",
          "type": "uint8"
        }
      ],
      "stateMutability": "view",
      "type": "function"
    },
    {
      "inputs": [
        {
          "internalType": "uint256",
          "name": "amount",
          "type": "uint256"
        }
      ],
      "name": "lockOrBurn",
      "outputs": [],
      "stateMutability": "nonpayable",
      "type": "function"
    },
    {
      "inputs": [],
      "name": "owner",
      "outputs": [
        {
          "internalType": "address",
          "name": "",
          "type": "address"
        }
      ],
      "stateMutability": "view",
      "type": "function"
    },
    {
      "inputs": [],
      "name": "pendingOwner",
      "outputs": [
        {
          "internalType": "address",
          "name": "",
          "type": "address"
        }
      ],
      "stateMutability": "view",
      "type": "function"
    },
    {
      "inputs": [
        {
          "internalType": "uint256",
          "name": "amount",
          "type": "uint256"
        },
        {
          "internalType": "address",
          "name": "receiver",
          "type": "address"
        }
      ],
      "name": "releaseOrMint",
      "outputs": [],
      "stateMutability": "nonpayable",
      "type": "function"
    },
    {
      "inputs": [],
      "name": "removeBridge",
      "outputs": [],
      "stateMutability": "nonpayable",
      "type": "function"
    },
    {
      "inputs": [],
      "name": "renounceOwnership",
      "outputs": [],
      "stateMutability": "nonpayable",
      "type": "function"
    },
    {
      "inputs": [
        {
          "internalType": "address",
          "name": "bridge",
          "type": "address"
        }
      ],
      "name": "setBridge",
      "outputs": [],
      "stateMutability": "nonpayable",
      "type": "function"
    },
    {
      "inputs": [
        {
          "internalType": "address",
          "name": "newOwner",
          "type": "address"
        }
      ],
      "name": "transferOwnership",
      "outputs": [],
      "stateMutability": "nonpayable",
      "type": "function"
    }
  ],
  "transactionHash": "0x1b5b273cade1a218516f02ae2eabc5f5ebca7d39d801ae304b1db65a36fa67ee",
  "args": [
    "0x804502FA53b6A76d128368Be3E6D42a6A73F3124",
    "0x2599aec699B1DB69d966c743b8922e64fE1Ab9fB"
  ],
  "numDeployments": 1,
  "solcInputHash": "fae637a45deca0005045ca74bdbaa66c",
  "bytecode": "0x60c060405234801561001057600080fd5b5060405161090c38038061090c83398101604081905261002f91610180565b81600182338061005957604051631e4fbdf760e01b81526000600482015260240160405180910390fd5b610062816100ff565b506001600160a01b038316608052816001811115610082576100826101ba565b60a0816001811115610096576100966101ba565b9052506001600160a01b038116156100f557600280546001600160a01b0319166001600160a01b0383169081179091556040513391906000907f89471ea472ebde5b139ae048d7199129059cd8b03c7480c88e7048ca67dde5e1908290a45b50505050506101d0565b600180546001600160a01b03191690556101188161011b565b50565b600080546001600160a01b038381166001600160a01b0319831681178455604051919092169283917f8be0079c531659141344cd1fd0a4f28419497f9722a3daafe3b4186f6b6457e09190a35050565b6001600160a01b038116811461011857600080fd5b6000806040838503121561019357600080fd5b825161019e8161016b565b60208401519092506101af8161016b565b809150509250929050565b634e487b7160e01b600052602160045260246000fd5b60805160a05161070a610202600039600061012801526000818160ef0152818161045e0152610539015261070a6000f3fe608060405234801561001057600080fd5b50600436106100b45760003560e01c806379ba50971161007157806379ba50971461015c5780638da5cb5b146101645780638dd1480214610175578063d569b55c14610188578063e30c39781461019b578063f2fde38b146101ac57600080fd5b80630fffbaf3146100b95780631acceb98146100e357806321df0da7146100ed578063503c28581461011357806364c0b2eb14610126578063715018a614610154575b600080fd5b6002546001600160a01b03165b6040516001600160a01b0390911681526020015b60405180910390f35b6100eb6101bf565b005b7f00000000000000000000000000000000000000000000000000000000000000006100c6565b6100eb610121366004610629565b610225565b7f00000000000000000000000000000000000000000000000000000000000000006040516100da9190610642565b6100eb610273565b6100eb610287565b6000546001600160a01b03166100c6565b6100eb610183366004610686565b6102c8565b6100eb6101963660046106a8565b610360565b6001546001600160a01b03166100c6565b6100eb6101ba366004610686565b6103aa565b6101c761041b565b6002546001600160a01b0316801561022257600280546001600160a01b031916905560405133906000906001600160a01b038416907f89471ea472ebde5b139ae048d7199129059cd8b03c7480c88e7048ca67dde5e1908390a45b50565b6002546001600160a01b0316331461026a5760025460405163f5e5683760e01b81523360048201526001600160a01b0390911660248201526044015b60405180910390fd5b61022281610448565b61027b61041b565b61028560006104fa565b565b60015433906001600160a01b031681146102bf5760405163118cdaa760e01b81526001600160a01b0382166004820152602401610261565b610222816104fa565b6102d061041b565b6001600160a01b0381166102f757604051637fc2831760e01b815260040160405180910390fd5b6002546001600160a01b03908116908216811461035c57600280546001600160a01b0319166001600160a01b0384811691821790925560405133928416907f89471ea472ebde5b139ae048d7199129059cd8b03c7480c88e7048ca67dde5e190600090a45b5050565b6002546001600160a01b031633146103a05760025460405163f5e5683760e01b81523360048201526001600160a01b039091166024820152604401610261565b61035c8282610513565b6103b261041b565b600180546001600160a01b0383166001600160a01b031990911681179091556103e36000546001600160a01b031690565b6001600160a01b03167f38d16b8cac22d99fc7c124b9cd0de2d3fa1faef420bfe791d8c362d765e2270060405160405180910390a350565b6000546001600160a01b031633146102855760405163118cdaa760e01b8152336004820152602401610261565b604051630852cd8d60e31b8152600481018290527f00000000000000000000000000000000000000000000000000000000000000006001600160a01b0316906342966c6890602401600060405180830381600087803b1580156104aa57600080fd5b505af11580156104be573d6000803e3d6000fd5b50506040518381523392507f696de425f79f4a40bc6d2122ca50507f0efbeabbff86a84871b7196ab8ea8df7915060200160405180910390a250565b600180546001600160a01b0319169055610222816105d9565b6040516340c10f1960e01b81526001600160a01b038281166004830152602482018490527f000000000000000000000000000000000000000000000000000000000000000016906340c10f1990604401600060405180830381600087803b15801561057d57600080fd5b505af1158015610591573d6000803e3d6000fd5b50506040518481526001600160a01b03841692503391507f9d228d69b5fdb8d273a2336f8fb8612d039631024ea9bf09c424a9503aa078f09060200160405180910390a35050565b600080546001600160a01b038381166001600160a01b0319831681178455604051919092169283917f8be0079c531659141344cd1fd0a4f28419497f9722a3daafe3b4186f6b6457e09190a35050565b60006020828403121561063b57600080fd5b5035919050565b602081016002831061066457634e487b7160e01b600052602160045260246000fd5b91905290565b80356001600160a01b038116811461068157600080fd5b919050565b60006020828403121561069857600080fd5b6106a18261066a565b9392505050565b600080604083850312156106bb57600080fd5b823591506106cb6020840161066a565b9050925092905056fea2646970667358221220dbc39d7f69ae24a2ffde015e286eaf013d6e14a1b6e3d4e5b627e6c02ac8404a64736f6c63430008180033",
  "devdoc": {
    "errors": {
      "OwnableInvalidOwner(address)": [
        {
          "details": "The owner is not a valid owner account. (eg. `address(0)`)"
        }
      ],
      "OwnableUnauthorizedAccount(address)": [
        {
          "details": "The caller account is not authorized to perform an operation."
        }
      ]
    },
    "kind": "dev",
    "methods": {
      "acceptOwnership()": {
        "details": "The new owner accepts the ownership transfer."
      },
      "getBridge()": {
        "returns": {
          "bridge": "The bridge address"
        }
      },
      "getToken()": {
        "returns": {
          "token": "The token of the pool"
        }
      },
      "getTokenPoolType()": {
        "returns": {
          "tokenPoolType": "The type of the token pool"
        }
      },
      "lockOrBurn(uint256)": {
        "params": {
          "amount": "The amount of tokens to lock or burn"
        }
      },
      "owner()": {
        "details": "Returns the address of the current owner."
      },
      "pendingOwner()": {
        "details": "Returns the address of the pending owner."
      },
      "releaseOrMint(uint256,address)": {
        "details": "For LockRelease token pool, if the pool is out of liquidity, it reverts.",
        "params": {
          "amount": "The amount of tokens to release or mint",
          "receiver": "The address to receive the released or minted tokens"
        }
      },
      "removeBridge()": {
        "details": "Emits the `BridgeSet` event with bridge as 0 address upon success."
      },
      "renounceOwnership()": {
        "details": "Leaves the contract without owner. It will not be possible to call `onlyOwner` functions. Can only be called by the current owner. NOTE: Renouncing ownership will leave the contract without an owner, thereby disabling any functionality that is only available to the owner."
      },
      "setBridge(address)": {
        "details": "Emits the `BridgeSet` event upon success.",
        "params": {
          "account": "The account to set as the bridge."
        }
      },
      "transferOwnership(address)": {
        "details": "Starts the ownership transfer of the contract to a new account. Replaces the pending transfer if there is one. Can only be called by the current owner."
      }
    },
    "version": 1
  },
  "userdoc": {
    "kind": "user",
    "methods": {
      "getBridge()": {
        "notice": "Returns the bridge address."
      },
      "getToken()": {
        "notice": "Returns the token of the pool."
      },
      "getTokenPoolType()": {
        "notice": "Returns the type of the token pool."
      },
      "lockOrBurn(uint256)": {
        "notice": "Locks or burns the amount of tokens.The caller must have the role of locker for LockRelease token pool or burner for BurnMint token pool."
      },
      "releaseOrMint(uint256,address)": {
        "notice": "Releases or mints the amount of tokens.The caller must have the role of unlocker for LockRelease token pool or minter for BurnMint token pool."
      },
      "removeBridge()": {
        "notice": "Removes the bridge. Only callable by the owner."
      },
      "setBridge(address)": {
        "notice": "Sets `account` as the bridge. Only callable by the owner."
      }
    },
    "version": 1
  },
  "storageLayout": {
    "storage": [
      {
        "astId": 129,
        "contract": "contracts/pools/BurnMintTokenPool.sol:BurnMintTokenPool",
        "label": "_owner",
        "offset": 0,
        "slot": "0",
        "type": "t_address"
      },
      {
        "astId": 277,
        "contract": "contracts/pools/BurnMintTokenPool.sol:BurnMintTokenPool",
        "label": "_pendingOwner",
        "offset": 0,
        "slot": "1",
        "type": "t_address"
      },
      {
        "astId": 8658,
        "contract": "contracts/pools/BurnMintTokenPool.sol:BurnMintTokenPool",
        "label": "s_bridge",
        "offset": 0,
        "slot": "2",
        "type": "t_address"
      }
    ],
    "types": {
      "t_address": {
        "encoding": "inplace",
        "label": "address",
        "numberOfBytes": "20"
      }
    }
  }
}