{
  "address": "0xE545fe256F8AFB1591FA7F5891d5e3de730c077C",
  "abi": [
    {
      "inputs": [],
      "stateMutability": "nonpayable",
      "type": "constructor"
    },
    {
      "inputs": [],
      "name": "BridgeAddressIsZero",
      "type": "error"
    },
    {
      "inputs": [
        {
          "internalType": "address",
          "name": "owner",
          "type": "address"
        }
      ],
      "name": "OwnableInvalidOwner",
      "type": "error"
    },
    {
      "inputs": [
        {
          "internalType": "address",
          "name": "account",
          "type": "address"
        }
      ],
      "name": "OwnableUnauthorizedAccount",
      "type": "error"
    },
    {
      "inputs": [],
      "name": "PoolAddressIsZero",
      "type": "error"
    },
    {
      "inputs": [],
      "name": "TokenAddressIsZero",
      "type": "error"
    },
    {
      "anonymous": false,
      "inputs": [
        {
          "indexed": true,
          "internalType": "contract IERC20",
          "name": "sourceToken",
          "type": "address"
        },
        {
          "indexed": true,
          "internalType": "uint64",
          "name": "destinationChainSelector",
          "type": "uint64"
        },
        {
          "indexed": true,
          "internalType": "address",
          "name": "owner",
          "type": "address"
        }
      ],
      "name": "DestinationTokenRemoved",
      "type": "event"
    },
    {
      "anonymous": false,
      "inputs": [
        {
          "indexed": true,
          "internalType": "contract IERC20",
          "name": "sourceToken",
          "type": "address"
        },
        {
          "indexed": true,
          "internalType": "uint64",
          "name": "destinationChainSelector",
          "type": "uint64"
        },
        {
          "indexed": false,
          "internalType": "contract IERC20",
          "name": "destinationToken",
          "type": "address"
        },
        {
          "indexed": true,
          "internalType": "address",
          "name": "owner",
          "type": "address"
        }
      ],
      "name": "DestinationTokenSet",
      "type": "event"
    },
    {
      "anonymous": false,
      "inputs": [
        {
          "indexed": true,
          "internalType": "uint64",
          "name": "destinationChainSelector",
          "type": "uint64"
        },
        {
          "indexed": false,
          "internalType": "bytes",
          "name": "extraArgs",
          "type": "bytes"
        },
        {
          "indexed": true,
          "internalType": "address",
          "name": "owner",
          "type": "address"
        }
      ],
      "name": "ExtraArgsSet",
      "type": "event"
    },
    {
      "anonymous": false,
      "inputs": [
        {
          "indexed": true,
          "internalType": "address",
          "name": "previousOwner",
          "type": "address"
        },
        {
          "indexed": true,
          "internalType": "address",
          "name": "newOwner",
          "type": "address"
        }
      ],
      "name": "OwnershipTransferStarted",
      "type": "event"
    },
    {
      "anonymous": false,
      "inputs": [
        {
          "indexed": true,
          "internalType": "address",
          "name": "previousOwner",
          "type": "address"
        },
        {
          "indexed": true,
          "internalType": "address",
          "name": "newOwner",
          "type": "address"
        }
      ],
      "name": "OwnershipTransferred",
      "type": "event"
    },
    {
      "anonymous": false,
      "inputs": [
        {
          "indexed": true,
          "internalType": "uint64",
          "name": "chainSelector",
          "type": "uint64"
        },
        {
          "indexed": true,
          "internalType": "address",
          "name": "owner",
          "type": "address"
        }
      ],
      "name": "RemoteBridgeRemoved",
      "type": "event"
    },
    {
      "anonymous": false,
      "inputs": [
        {
          "indexed": true,
          "internalType": "uint64",
          "name": "chainSelector",
          "type": "uint64"
        },
        {
          "indexed": true,
          "internalType": "address",
          "name": "remoteBridge",
          "type": "address"
        },
        {
          "indexed": true,
          "internalType": "address",
          "name": "owner",
          "type": "address"
        }
      ],
      "name": "RemoteBridgeSet",
      "type": "event"
    },
    {
      "anonymous": false,
      "inputs": [
        {
          "indexed": true,
          "internalType": "contract IERC20",
          "name": "token",
          "type": "address"
        },
        {
          "indexed": true,
          "internalType": "address",
          "name": "owner",
          "type": "address"
        }
      ],
      "name": "TokenPoolRemoved",
      "type": "event"
    },
    {
      "anonymous": false,
      "inputs": [
        {
          "indexed": true,
          "internalType": "contract IERC20",
          "name": "token",
          "type": "address"
        },
        {
          "indexed": true,
          "internalType": "contract IPool",
          "name": "pool",
          "type": "address"
        },
        {
          "indexed": true,
          "internalType": "address",
          "name": "owner",
          "type": "address"
        }
      ],
      "name": "TokenPoolSet",
      "type": "event"
    },
    {
      "inputs": [],
      "name": "acceptOwnership",
      "outputs": [],
      "stateMutability": "nonpayable",
      "type": "function"
    },
    {
      "inputs": [
        {
          "internalType": "contract IERC20",
          "name": "token",
          "type": "address"
        },
        {
          "internalType": "uint64",
          "name": "sourceChainSelector",
          "type": "uint64"
        }
      ],
      "name": "getConfigIn",
      "outputs": [
        {
          "components": [
            {
              "internalType": "address",
              "name": "senderBridge",
              "type": "address"
            },
            {
              "internalType": "contract IPool",
              "name": "pool",
              "type": "address"
            }
          ],
          "internalType": "struct IConfiguration.ConfigIn",
          "name": "config",
          "type": "tuple"
        }
      ],
      "stateMutability": "view",
      "type": "function"
    },
    {
      "inputs": [
        {
          "internalType": "contract IERC20",
          "name": "token",
          "type": "address"
        },
        {
          "internalType": "uint64",
          "name": "destinationChainSelector",
          "type": "uint64"
        }
      ],
      "name": "getConfigOut",
      "outputs": [
        {
          "components": [
            {
              "internalType": "address",
              "name": "receiverBridge",
              "type": "address"
            },
            {
              "internalType": "contract IERC20",
              "name": "destinationToken",
              "type": "address"
            },
            {
              "internalType": "contract IPool",
              "name": "pool",
              "type": "address"
            },
            {
              "internalType": "bytes",
              "name": "extraArgs",
              "type": "bytes"
            }
          ],
          "internalType": "struct IConfiguration.ConfigOut",
          "name": "config",
          "type": "tuple"
        }
      ],
      "stateMutability": "view",
      "type": "function"
    },
    {
      "inputs": [
        {
          "internalType": "contract IERC20",
          "name": "sourceToken",
          "type": "address"
        },
        {
          "internalType": "uint64",
          "name": "destinationChainSelector",
          "type": "uint64"
        }
      ],
      "name": "getDestinationToken",
      "outputs": [
        {
          "internalType": "contract IERC20",
          "name": "destinationToken",
          "type": "address"
        }
      ],
      "stateMutability": "view",
      "type": "function"
    },
    {
      "inputs": [
        {
          "internalType": "uint64",
          "name": "destinationChainSelector",
          "type": "uint64"
        }
      ],
      "name": "getExtraArgs",
      "outputs": [
        {
          "internalType": "bytes",
          "name": "extraArgs",
          "type": "bytes"
        }
      ],
      "stateMutability": "view",
      "type": "function"
    },
    {
      "inputs": [
        {
          "internalType": "uint64",
          "name": "chainSelector",
          "type": "uint64"
        }
      ],
      "name": "getRemoteBridge",
      "outputs": [
        {
          "internalType": "address",
          "name": "remoteBridge",
          "type": "address"
        }
      ],
      "stateMutability": "view",
      "type": "function"
    },
    {
      "inputs": [
        {
          "internalType": "contract IERC20",
          "name": "token",
          "type": "address"
        }
      ],
      "name": "getTokenPool",
      "outputs": [
        {
          "internalType": "contract IPool",
          "name": "pool",
          "type": "address"
        }
      ],
      "stateMutability": "view",
      "type": "function"
    },
    {
      "inputs": [
        {
          "internalType": "uint64",
          "name": "chainSelector",
          "type": "uint64"
        }
      ],
      "name": "isBridgeAvailableOnChain",
      "outputs": [
        {
          "internalType": "bool",
          "name": "available",
          "type": "bool"
        }
      ],
      "stateMutability": "view",
      "type": "function"
    },
    {
      "inputs": [
        {
          "internalType": "contract IERC20",
          "name": "token",
          "type": "address"
        },
        {
          "internalType": "uint64",
          "name": "destinationChainSelector",
          "type": "uint64"
        }
      ],
      "name": "isTokenAvailableOnDestination",
      "outputs": [
        {
          "internalType": "bool",
          "name": "available",
          "type": "bool"
        }
      ],
      "stateMutability": "view",
      "type": "function"
    },
    {
      "inputs": [
        {
          "internalType": "contract IERC20",
          "name": "token",
          "type": "address"
        }
      ],
      "name": "isTokenPoolAvailable",
      "outputs": [
        {
          "internalType": "bool",
          "name": "available",
          "type": "bool"
        }
      ],
      "stateMutability": "view",
      "type": "function"
    },
    {
      "inputs": [],
      "name": "owner",
      "outputs": [
        {
          "internalType": "address",
          "name": "",
          "type": "address"
        }
      ],
      "stateMutability": "view",
      "type": "function"
    },
    {
      "inputs": [],
      "name": "pendingOwner",
      "outputs": [
        {
          "internalType": "address",
          "name": "",
          "type": "address"
        }
      ],
      "stateMutability": "view",
      "type": "function"
    },
    {
      "inputs": [
        {
          "internalType": "contract IERC20",
          "name": "sourceToken",
          "type": "address"
        },
        {
          "internalType": "uint64",
          "name": "destinationChainSelector",
          "type": "uint64"
        }
      ],
      "name": "removeDestinationToken",
      "outputs": [],
      "stateMutability": "nonpayable",
      "type": "function"
    },
    {
      "inputs": [
        {
          "internalType": "uint64",
          "name": "chainSelector",
          "type": "uint64"
        }
      ],
      "name": "removeRemoteBridge",
      "outputs": [],
      "stateMutability": "nonpayable",
      "type": "function"
    },
    {
      "inputs": [
        {
          "internalType": "contract IERC20",
          "name": "token",
          "type": "address"
        }
      ],
      "name": "removeTokenPool",
      "outputs": [],
      "stateMutability": "nonpayable",
      "type": "function"
    },
    {
      "inputs": [],
      "name": "renounceOwnership",
      "outputs": [],
      "stateMutability": "nonpayable",
      "type": "function"
    },
    {
      "inputs": [
        {
          "internalType": "contract IERC20",
          "name": "sourceToken",
          "type": "address"
        },
        {
          "internalType": "uint64",
          "name": "destinationChainSelector",
          "type": "uint64"
        },
        {
          "internalType": "contract IERC20",
          "name": "destinationToken",
          "type": "address"
        }
      ],
      "name": "setDestinationToken",
      "outputs": [],
      "stateMutability": "nonpayable",
      "type": "function"
    },
    {
      "inputs": [
        {
          "internalType": "uint64",
          "name": "destinationChainSelector",
          "type": "uint64"
        },
        {
          "internalType": "bytes",
          "name": "extraArgs",
          "type": "bytes"
        }
      ],
      "name": "setExtraArgs",
      "outputs": [],
      "stateMutability": "nonpayable",
      "type": "function"
    },
    {
      "inputs": [
        {
          "internalType": "uint64",
          "name": "destinationChainSelector",
          "type": "uint64"
        },
        {
          "internalType": "uint256",
          "name": "gasLimit",
          "type": "uint256"
        }
      ],
      "name": "setExtraArgsGasLimit",
      "outputs": [],
      "stateMutability": "nonpayable",
      "type": "function"
    },
    {
      "inputs": [
        {
          "internalType": "uint64",
          "name": "chainSelector",
          "type": "uint64"
        },
        {
          "internalType": "address",
          "name": "remoteBridge",
          "type": "address"
        }
      ],
      "name": "setRemoteBridge",
      "outputs": [],
      "stateMutability": "nonpayable",
      "type": "function"
    },
    {
      "inputs": [
        {
          "internalType": "contract IPool",
          "name": "pool",
          "type": "address"
        }
      ],
      "name": "setTokenPool",
      "outputs": [],
      "stateMutability": "nonpayable",
      "type": "function"
    },
    {
      "inputs": [
        {
          "internalType": "address",
          "name": "newOwner",
          "type": "address"
        }
      ],
      "name": "transferOwnership",
      "outputs": [],
      "stateMutability": "nonpayable",
      "type": "function"
    }
  ],
  "transactionHash": "0xaedf7724a87c8768942dbd328aede8396a7b6b4cde3e3070e8238c6b8702933a",
  "args": [],
  "numDeployments": 1,
  "solcInputHash": "fae637a45deca0005045ca74bdbaa66c",
  "bytecode": "0x608060405234801561001057600080fd5b50338061003757604051631e4fbdf760e01b81526000600482015260240160405180910390fd5b61004081610046565b506100b2565b600180546001600160a01b031916905561005f81610062565b50565b600080546001600160a01b038381166001600160a01b0319831681178455604051919092169283917f8be0079c531659141344cd1fd0a4f28419497f9722a3daafe3b4186f6b6457e09190a35050565b6110cf806100c16000396000f3fe608060405234801561001057600080fd5b50600436106101415760003560e01c8063715018a6116100b85780638da5cb5b1161007c5780638da5cb5b146102ed578063d253ab56146102fe578063e30c397814610311578063f2fde38b14610322578063f4070dc214610335578063ffa739df1461034857600080fd5b8063715018a61461027d5780637764b4d21461028557806379ba5097146102985780637d5ecb85146102a05780637e2ecccb146102da57600080fd5b80634ae0ac871161010a5780634ae0ac87146101ee578063525599be14610211578063545ee8e2146102315780635d8949f0146102445780636a4327a8146102575780636fd5c5781461026a57600080fd5b8062faa2051461014657806304c2a34a1461016f5780630fa9cb56146101b357806332831a73146101c857806348cc24a8146101db575b600080fd5b610159610154366004610c80565b61035b565b6040516101669190610ce8565b60405180910390f35b61019b61017d366004610d10565b6001600160a01b039081166000908152600460205260409020541690565b6040516001600160a01b039091168152602001610166565b6101c66101c1366004610d43565b610407565b005b6101c66101d6366004610e04565b610481565b6101c66101e9366004610e2e565b61053e565b6102016101fc366004610c80565b6105ad565b6040519015158152602001610166565b61022461021f366004610e2e565b6105ca565b6040516101669190610e63565b61020161023f366004610d10565b610669565b6101c6610252366004610c80565b61068e565b610201610265366004610e2e565b6106e7565b61019b610278366004610e2e565b610706565b6101c6610739565b6101c6610293366004610d10565b61074d565b6101c66108c8565b6102b36102ae366004610e2e565b610911565b6040805182516001600160a01b039081168252602093840151169281019290925201610166565b6101c66102e8366004610d10565b61097b565b6000546001600160a01b031661019b565b61019b61030c366004610c80565b6109d4565b6001546001600160a01b031661019b565b6101c6610330366004610d10565b6109f8565b6101c6610343366004610eb2565b610a69565b6101c6610356366004610efb565b610b40565b6001600160401b038116600090815260036020526040902080546060919061038290610f32565b80601f01602080910402602001604051908101604052809291908181526020018280546103ae90610f32565b80156103fb5780601f106103d0576101008083540402835291602001916103fb565b820191906000526020600020905b8154815290600101906020018083116103de57829003601f168201915b50505050509050919050565b61040f610bd3565b6001600160401b03821660009081526003602052604090206104318282610fbd565b50336001600160a01b0316826001600160401b03167fbefc741031593c17380eca192b57cfbf1d6a3fa4fe714e562318ff54616bacc4836040516104759190610ce8565b60405180910390a35050565b610489610bd3565b60408051602080820183529083905281516024808201859052835180830390910181526044909101835280820180516001600160e01b03166397a657c960e01b1790526001600160401b038516600090815260039092529190206104ed8282610fbd565b50336001600160a01b0316836001600160401b03167fbefc741031593c17380eca192b57cfbf1d6a3fa4fe714e562318ff54616bacc4836040516105319190610ce8565b60405180910390a3505050565b610546610bd3565b6001600160a01b03821660008181526005602090815260408083206001600160401b038616808552925280832080546001600160a01b031916905551339391927f95590502f1b0a9204744222a9e1d71218b6f9c8c97520b37648c30f4613b6f0d91a45050565b6000806105b9836109d4565b6001600160a01b0316141592915050565b60408051608081018252600080825260208201819052918101919091526060808201526040518060800160405280610601846109d4565b6001600160a01b031681526020016106198585610706565b6001600160a01b03168152602001610649856001600160a01b039081166000908152600460205260409020541690565b6001600160a01b031681526020016106608461035b565b90529392505050565b6000806105b9836001600160a01b039081166000908152600460205260409020541690565b610696610bd3565b6001600160401b03811660008181526002602052604080822080546001600160a01b0319169055513392917f32558413d694795f9c5f56b3efb18491999fa215c3a01a7a1d70b148e6e3611f91a350565b6000806106f48484610706565b6001600160a01b031614159392505050565b6001600160a01b0391821660009081526005602090815260408083206001600160401b0394909416835292905220541690565b610741610bd3565b61074b6000610c00565b565b610755610bd3565b806001600160a01b03811661077d5760405163afac17d360e01b815260040160405180910390fd5b816001600160a01b03166321df0da76040518163ffffffff1660e01b8152600401602060405180830381865afa1580156107bb573d6000803e3d6000fd5b505050506040513d601f19601f820116820180604052508101906107df919061107c565b6001600160a01b0381166108065760405163dc2e5e8d60e01b815260040160405180910390fd5b6000836001600160a01b03166321df0da76040518163ffffffff1660e01b8152600401602060405180830381865afa158015610846573d6000803e3d6000fd5b505050506040513d601f19601f8201168201806040525081019061086a919061107c565b6001600160a01b0381811660008181526004602052604080822080546001600160a01b031916948a1694851790555193945033937fcd8fa19f8dfe4e7ec057625b8a48fb3950cf9c3a3c84764cc69fc5db238ff6e79190a450505050565b60015433906001600160a01b031681146109055760405163118cdaa760e01b81526001600160a01b03821660048201526024015b60405180910390fd5b61090e81610c00565b50565b60408051808201909152600080825260208201526040518060400160405280610939846109d4565b6001600160a01b03168152602001610969856001600160a01b039081166000908152600460205260409020541690565b6001600160a01b031690529392505050565b610983610bd3565b6001600160a01b03811660008181526004602052604080822080546001600160a01b0319169055513392917f162579434be2aad7dff7a6e91fd02c0d1a4ce8bafd861497d82de518d48d582d91a350565b6001600160401b03166000908152600260205260409020546001600160a01b031690565b610a00610bd3565b600180546001600160a01b0383166001600160a01b03199091168117909155610a316000546001600160a01b031690565b6001600160a01b03167f38d16b8cac22d99fc7c124b9cd0de2d3fa1faef420bfe791d8c362d765e2270060405160405180910390a350565b610a71610bd3565b826001600160a01b038116610a995760405163dc2e5e8d60e01b815260040160405180910390fd5b816001600160a01b038116610ac15760405163dc2e5e8d60e01b815260040160405180910390fd5b6001600160a01b0385811660008181526005602090815260408083206001600160401b038a168085529083529281902080546001600160a01b03191695891695861790555193845233939192917f82d68422584feefb92956ca45634c4987a8128ee73db4c75b96c3ab6218f25af910160405180910390a45050505050565b610b48610bd3565b806001600160a01b038116610b70576040516332b215d160e01b815260040160405180910390fd5b6001600160401b03831660008181526002602052604080822080546001600160a01b0319166001600160a01b0387169081179091559051339391927ffd082254b67a5ad677ea313acf41ac7479114bbf6ad2b3b039bfe4fa8fa6821891a4505050565b6000546001600160a01b0316331461074b5760405163118cdaa760e01b81523360048201526024016108fc565b600180546001600160a01b031916905561090e81600080546001600160a01b038381166001600160a01b0319831681178455604051919092169283917f8be0079c531659141344cd1fd0a4f28419497f9722a3daafe3b4186f6b6457e09190a35050565b80356001600160401b0381168114610c7b57600080fd5b919050565b600060208284031215610c9257600080fd5b610c9b82610c64565b9392505050565b6000815180845260005b81811015610cc857602081850181015186830182015201610cac565b506000602082860101526020601f19601f83011685010191505092915050565b602081526000610c9b6020830184610ca2565b6001600160a01b038116811461090e57600080fd5b600060208284031215610d2257600080fd5b8135610c9b81610cfb565b634e487b7160e01b600052604160045260246000fd5b60008060408385031215610d5657600080fd5b610d5f83610c64565b915060208301356001600160401b0380821115610d7b57600080fd5b818501915085601f830112610d8f57600080fd5b813581811115610da157610da1610d2d565b604051601f8201601f19908116603f01168101908382118183101715610dc957610dc9610d2d565b81604052828152886020848701011115610de257600080fd5b8260208601602083013760006020848301015280955050505050509250929050565b60008060408385031215610e1757600080fd5b610e2083610c64565b946020939093013593505050565b60008060408385031215610e4157600080fd5b8235610e4c81610cfb565b9150610e5a60208401610c64565b90509250929050565b60208152600060018060a01b03808451166020840152806020850151166040840152806040850151166060840152506060830151608080840152610eaa60a0840182610ca2565b949350505050565b600080600060608486031215610ec757600080fd5b8335610ed281610cfb565b9250610ee060208501610c64565b91506040840135610ef081610cfb565b809150509250925092565b60008060408385031215610f0e57600080fd5b610f1783610c64565b91506020830135610f2781610cfb565b809150509250929050565b600181811c90821680610f4657607f821691505b602082108103610f6657634e487b7160e01b600052602260045260246000fd5b50919050565b601f821115610fb8576000816000526020600020601f850160051c81016020861015610f955750805b601f850160051c820191505b81811015610fb457828155600101610fa1565b5050505b505050565b81516001600160401b03811115610fd657610fd6610d2d565b610fea81610fe48454610f32565b84610f6c565b602080601f83116001811461101f57600084156110075750858301515b600019600386901b1c1916600185901b178555610fb4565b600085815260208120601f198616915b8281101561104e5788860151825594840194600190910190840161102f565b508582101561106c5787850151600019600388901b60f8161c191681555b5050505050600190811b01905550565b60006020828403121561108e57600080fd5b8151610c9b81610cfb56fea2646970667358221220a3d51d1d6b6701cc8f874781595fd95abcfa79a4e334e88a180ef9cc5c8a7f7364736f6c63430008180033",
  "devdoc": {
    "errors": {
      "OwnableInvalidOwner(address)": [
        {
          "details": "The owner is not a valid owner account. (eg. `address(0)`)"
        }
      ],
      "OwnableUnauthorizedAccount(address)": [
        {
          "details": "The caller account is not authorized to perform an operation."
        }
      ]
    },
    "kind": "dev",
    "methods": {
      "acceptOwnership()": {
        "details": "The new owner accepts the ownership transfer."
      },
      "owner()": {
        "details": "Returns the address of the current owner."
      },
      "pendingOwner()": {
        "details": "Returns the address of the pending owner."
      },
      "renounceOwnership()": {
        "details": "Leaves the contract without owner. It will not be possible to call `onlyOwner` functions. Can only be called by the current owner. NOTE: Renouncing ownership will leave the contract without an owner, thereby disabling any functionality that is only available to the owner."
      },
      "transferOwnership(address)": {
        "details": "Starts the ownership transfer of the contract to a new account. Replaces the pending transfer if there is one. Can only be called by the current owner."
      }
    },
    "version": 1
  },
  "userdoc": {
    "kind": "user",
    "methods": {},
    "version": 1
  },
  "storageLayout": {
    "storage": [
      {
        "astId": 129,
        "contract": "contracts/bridge/Configuration.sol:Configuration",
        "label": "_owner",
        "offset": 0,
        "slot": "0",
        "type": "t_address"
      },
      {
        "astId": 277,
        "contract": "contracts/bridge/Configuration.sol:Configuration",
        "label": "_pendingOwner",
        "offset": 0,
        "slot": "1",
        "type": "t_address"
      },
      {
        "astId": 6809,
        "contract": "contracts/bridge/Configuration.sol:Configuration",
        "label": "s_bridges",
        "offset": 0,
        "slot": "2",
        "type": "t_mapping(t_uint64,t_address)"
      },
      {
        "astId": 6813,
        "contract": "contracts/bridge/Configuration.sol:Configuration",
        "label": "s_extraArgs",
        "offset": 0,
        "slot": "3",
        "type": "t_mapping(t_uint64,t_bytes_storage)"
      },
      {
        "astId": 6819,
        "contract": "contracts/bridge/Configuration.sol:Configuration",
        "label": "s_tokenPools",
        "offset": 0,
        "slot": "4",
        "type": "t_mapping(t_contract(IERC20)1207,t_contract(IPool)7983)"
      },
      {
        "astId": 6827,
        "contract": "contracts/bridge/Configuration.sol:Configuration",
        "label": "s_destinationTokens",
        "offset": 0,
        "slot": "5",
        "type": "t_mapping(t_contract(IERC20)1207,t_mapping(t_uint64,t_contract(IERC20)1207))"
      }
    ],
    "types": {
      "t_address": {
        "encoding": "inplace",
        "label": "address",
        "numberOfBytes": "20"
      },
      "t_bytes_storage": {
        "encoding": "bytes",
        "label": "bytes",
        "numberOfBytes": "32"
      },
      "t_contract(IERC20)1207": {
        "encoding": "inplace",
        "label": "contract IERC20",
        "numberOfBytes": "20"
      },
      "t_contract(IPool)7983": {
        "encoding": "inplace",
        "label": "contract IPool",
        "numberOfBytes": "20"
      },
      "t_mapping(t_contract(IERC20)1207,t_contract(IPool)7983)": {
        "encoding": "mapping",
        "key": "t_contract(IERC20)1207",
        "label": "mapping(contract IERC20 => contract IPool)",
        "numberOfBytes": "32",
        "value": "t_contract(IPool)7983"
      },
      "t_mapping(t_contract(IERC20)1207,t_mapping(t_uint64,t_contract(IERC20)1207))": {
        "encoding": "mapping",
        "key": "t_contract(IERC20)1207",
        "label": "mapping(contract IERC20 => mapping(uint64 => contract IERC20))",
        "numberOfBytes": "32",
        "value": "t_mapping(t_uint64,t_contract(IERC20)1207)"
      },
      "t_mapping(t_uint64,t_address)": {
        "encoding": "mapping",
        "key": "t_uint64",
        "label": "mapping(uint64 => address)",
        "numberOfBytes": "32",
        "value": "t_address"
      },
      "t_mapping(t_uint64,t_bytes_storage)": {
        "encoding": "mapping",
        "key": "t_uint64",
        "label": "mapping(uint64 => bytes)",
        "numberOfBytes": "32",
        "value": "t_bytes_storage"
      },
      "t_mapping(t_uint64,t_contract(IERC20)1207)": {
        "encoding": "mapping",
        "key": "t_uint64",
        "label": "mapping(uint64 => contract IERC20)",
        "numberOfBytes": "32",
        "value": "t_contract(IERC20)1207"
      },
      "t_uint64": {
        "encoding": "inplace",
        "label": "uint64",
        "numberOfBytes": "8"
      }
    }
  }
}