{
  "address": "0xA8208b834CEea1E53DE8B72b859323aa6A6eA1d4",
  "abi": [
    {
      "inputs": [
        {
          "internalType": "address",
          "name": "router",
          "type": "address"
        },
        {
          "internalType": "contract IConfiguration",
          "name": "configuration",
          "type": "address"
        }
      ],
      "stateMutability": "nonpayable",
      "type": "constructor"
    },
    {
      "inputs": [
        {
          "internalType": "address",
          "name": "target",
          "type": "address"
        }
      ],
      "name": "AddressEmptyCode",
      "type": "error"
    },
    {
      "inputs": [
        {
          "internalType": "address",
          "name": "account",
          "type": "address"
        }
      ],
      "name": "AddressInsufficientBalance",
      "type": "error"
    },
    {
      "inputs": [
        {
          "internalType": "uint256",
          "name": "nativeGas",
          "type": "uint256"
        },
        {
          "internalType": "address",
          "name": "feeToken",
          "type": "address"
        }
      ],
      "name": "CannotSetFeeTokenIfNativeGasNotZero",
      "type": "error"
    },
    {
      "inputs": [
        {
          "internalType": "address",
          "name": "configuration",
          "type": "address"
        }
      ],
      "name": "ConfigurationAlreadySet",
      "type": "error"
    },
    {
      "inputs": [],
      "name": "ConfigurationIsZero",
      "type": "error"
    },
    {
      "inputs": [],
      "name": "ConfigurationNotSet",
      "type": "error"
    },
    {
      "inputs": [],
      "name": "DestinationChainSelectorIsZero",
      "type": "error"
    },
    {
      "inputs": [
        {
          "internalType": "bytes32",
          "name": "key",
          "type": "bytes32"
        }
      ],
      "name": "EnumerableMapNonexistentKey",
      "type": "error"
    },
    {
      "inputs": [],
      "name": "FailedInnerCall",
      "type": "error"
    },
    {
      "inputs": [
        {
          "internalType": "address",
          "name": "receiver",
          "type": "address"
        },
        {
          "internalType": "uint256",
          "name": "changeAmount",
          "type": "uint256"
        }
      ],
      "name": "FailedToSendChange",
      "type": "error"
    },
    {
      "inputs": [],
      "name": "FeeTokenAddressIsZero",
      "type": "error"
    },
    {
      "inputs": [
        {
          "internalType": "contract IERC20",
          "name": "feeToken",
          "type": "address"
        },
        {
          "internalType": "uint256",
          "name": "fees",
          "type": "uint256"
        },
        {
          "internalType": "uint256",
          "name": "allowance",
          "type": "uint256"
        }
      ],
      "name": "InsufficientFeeAllowance",
      "type": "error"
    },
    {
      "inputs": [
        {
          "internalType": "uint256",
          "name": "nativeGas",
          "type": "uint256"
        },
        {
          "internalType": "uint256",
          "name": "fees",
          "type": "uint256"
        }
      ],
      "name": "InsufficientFees",
      "type": "error"
    },
    {
      "inputs": [
        {
          "internalType": "address",
          "name": "router",
          "type": "address"
        }
      ],
      "name": "InvalidRouter",
      "type": "error"
    },
    {
      "inputs": [
        {
          "internalType": "uint64",
          "name": "sourceChainSelector",
          "type": "uint64"
        },
        {
          "internalType": "address",
          "name": "configuredSenderBridge",
          "type": "address"
        },
        {
          "internalType": "address",
          "name": "senderBridge",
          "type": "address"
        }
      ],
      "name": "InvalidSenderBridge",
      "type": "error"
    },
    {
      "inputs": [
        {
          "internalType": "bytes32",
          "name": "messageId",
          "type": "bytes32"
        }
      ],
      "name": "MessageNotFailed",
      "type": "error"
    },
    {
      "inputs": [
        {
          "internalType": "uint64",
          "name": "destinationChainSelector",
          "type": "uint64"
        }
      ],
      "name": "NoBridgeOnDestination",
      "type": "error"
    },
    {
      "inputs": [
        {
          "internalType": "uint64",
          "name": "destinationChainSelector",
          "type": "uint64"
        }
      ],
      "name": "NoExtraArgs",
      "type": "error"
    },
    {
      "inputs": [
        {
          "internalType": "address",
          "name": "caller",
          "type": "address"
        }
      ],
      "name": "OnlySelf",
      "type": "error"
    },
    {
      "inputs": [
        {
          "internalType": "address",
          "name": "owner",
          "type": "address"
        }
      ],
      "name": "OwnableInvalidOwner",
      "type": "error"
    },
    {
      "inputs": [
        {
          "internalType": "address",
          "name": "account",
          "type": "address"
        }
      ],
      "name": "OwnableUnauthorizedAccount",
      "type": "error"
    },
    {
      "inputs": [],
      "name": "ReceivedAmountIsZero",
      "type": "error"
    },
    {
      "inputs": [],
      "name": "ReceiverAddressIsZero",
      "type": "error"
    },
    {
      "inputs": [],
      "name": "ReentrancyGuardReentrantCall",
      "type": "error"
    },
    {
      "inputs": [
        {
          "internalType": "address",
          "name": "token",
          "type": "address"
        }
      ],
      "name": "SafeERC20FailedOperation",
      "type": "error"
    },
    {
      "inputs": [],
      "name": "TokenAddressIsZero",
      "type": "error"
    },
    {
      "inputs": [
        {
          "internalType": "contract IERC20",
          "name": "token",
          "type": "address"
        },
        {
          "internalType": "uint64",
          "name": "destinationChainSelector",
          "type": "uint64"
        }
      ],
      "name": "TokenNotSupported",
      "type": "error"
    },
    {
      "inputs": [
        {
          "internalType": "contract IERC20",
          "name": "token",
          "type": "address"
        }
      ],
      "name": "TokenPoolNotSet",
      "type": "error"
    },
    {
      "anonymous": false,
      "inputs": [
        {
          "indexed": true,
          "internalType": "contract IConfiguration",
          "name": "oldConfiguration",
          "type": "address"
        },
        {
          "indexed": true,
          "internalType": "contract IConfiguration",
          "name": "newConfiguration",
          "type": "address"
        },
        {
          "indexed": true,
          "internalType": "address",
          "name": "owner",
          "type": "address"
        }
      ],
      "name": "ConfigurationSet",
      "type": "event"
    },
    {
      "anonymous": false,
      "inputs": [
        {
          "indexed": true,
          "internalType": "bytes32",
          "name": "messageId",
          "type": "bytes32"
        },
        {
          "indexed": true,
          "internalType": "address",
          "name": "sender",
          "type": "address"
        },
        {
          "indexed": true,
          "internalType": "address",
          "name": "receiver",
          "type": "address"
        }
      ],
      "name": "CrossChainMessageReceived",
      "type": "event"
    },
    {
      "anonymous": false,
      "inputs": [
        {
          "indexed": true,
          "internalType": "bytes32",
          "name": "messageId",
          "type": "bytes32"
        },
        {
          "indexed": true,
          "internalType": "address",
          "name": "sender",
          "type": "address"
        },
        {
          "indexed": true,
          "internalType": "address",
          "name": "receiver",
          "type": "address"
        }
      ],
      "name": "CrossChainMessageSent",
      "type": "event"
    },
    {
      "anonymous": false,
      "inputs": [
        {
          "indexed": true,
          "internalType": "bytes32",
          "name": "messageId",
          "type": "bytes32"
        },
        {
          "indexed": true,
          "internalType": "address",
          "name": "receiver",
          "type": "address"
        },
        {
          "components": [
            {
              "internalType": "contract IERC20",
              "name": "token",
              "type": "address"
            },
            {
              "internalType": "uint256",
              "name": "amount",
              "type": "uint256"
            }
          ],
          "indexed": false,
          "internalType": "struct IBridge.TokenAmount",
          "name": "tokenAmount",
          "type": "tuple"
        },
        {
          "indexed": false,
          "internalType": "bytes",
          "name": "reason",
          "type": "bytes"
        }
      ],
      "name": "MessageFailed",
      "type": "event"
    },
    {
      "anonymous": false,
      "inputs": [
        {
          "indexed": true,
          "internalType": "bytes32",
          "name": "messageId",
          "type": "bytes32"
        },
        {
          "indexed": true,
          "internalType": "address",
          "name": "recoverer",
          "type": "address"
        },
        {
          "indexed": true,
          "internalType": "address",
          "name": "receiver",
          "type": "address"
        },
        {
          "components": [
            {
              "internalType": "contract IERC20",
              "name": "token",
              "type": "address"
            },
            {
              "internalType": "uint256",
              "name": "amount",
              "type": "uint256"
            }
          ],
          "indexed": false,
          "internalType": "struct IBridge.TokenAmount",
          "name": "tokenAmount",
          "type": "tuple"
        }
      ],
      "name": "MessageRecovered",
      "type": "event"
    },
    {
      "anonymous": false,
      "inputs": [
        {
          "indexed": true,
          "internalType": "address",
          "name": "previousOwner",
          "type": "address"
        },
        {
          "indexed": true,
          "internalType": "address",
          "name": "newOwner",
          "type": "address"
        }
      ],
      "name": "OwnershipTransferStarted",
      "type": "event"
    },
    {
      "anonymous": false,
      "inputs": [
        {
          "indexed": true,
          "internalType": "address",
          "name": "previousOwner",
          "type": "address"
        },
        {
          "indexed": true,
          "internalType": "address",
          "name": "newOwner",
          "type": "address"
        }
      ],
      "name": "OwnershipTransferred",
      "type": "event"
    },
    {
      "anonymous": false,
      "inputs": [
        {
          "indexed": true,
          "internalType": "address",
          "name": "oldRouter",
          "type": "address"
        },
        {
          "indexed": true,
          "internalType": "address",
          "name": "newRouter",
          "type": "address"
        },
        {
          "indexed": true,
          "internalType": "address",
          "name": "owner",
          "type": "address"
        }
      ],
      "name": "RouterSet",
      "type": "event"
    },
    {
      "anonymous": false,
      "inputs": [
        {
          "indexed": true,
          "internalType": "contract IERC20",
          "name": "tokenDestination",
          "type": "address"
        },
        {
          "indexed": true,
          "internalType": "contract IPool",
          "name": "tokenDestinationPool",
          "type": "address"
        },
        {
          "indexed": true,
          "internalType": "uint64",
          "name": "sourceChainSelector",
          "type": "uint64"
        },
        {
          "indexed": false,
          "internalType": "uint256",
          "name": "amount",
          "type": "uint256"
        }
      ],
      "name": "TokensReceived",
      "type": "event"
    },
    {
      "anonymous": false,
      "inputs": [
        {
          "indexed": true,
          "internalType": "contract IERC20",
          "name": "tokenSource",
          "type": "address"
        },
        {
          "indexed": true,
          "internalType": "contract IPool",
          "name": "tokenSourcePool",
          "type": "address"
        },
        {
          "indexed": true,
          "internalType": "uint64",
          "name": "destinationChainSelector",
          "type": "uint64"
        },
        {
          "indexed": false,
          "internalType": "contract IERC20",
          "name": "tokenDestination",
          "type": "address"
        },
        {
          "indexed": false,
          "internalType": "uint256",
          "name": "amount",
          "type": "uint256"
        },
        {
          "indexed": false,
          "internalType": "uint256",
          "name": "fees",
          "type": "uint256"
        }
      ],
      "name": "TokensTransferred",
      "type": "event"
    },
    {
      "inputs": [],
      "name": "acceptOwnership",
      "outputs": [],
      "stateMutability": "nonpayable",
      "type": "function"
    },
    {
      "inputs": [
        {
          "components": [
            {
              "internalType": "bytes32",
              "name": "messageId",
              "type": "bytes32"
            },
            {
              "internalType": "uint64",
              "name": "sourceChainSelector",
              "type": "uint64"
            },
            {
              "internalType": "bytes",
              "name": "sender",
              "type": "bytes"
            },
            {
              "internalType": "bytes",
              "name": "data",
              "type": "bytes"
            },
            {
              "components": [
                {
                  "internalType": "address",
                  "name": "token",
                  "type": "address"
                },
                {
                  "internalType": "uint256",
                  "name": "amount",
                  "type": "uint256"
                }
              ],
              "internalType": "struct Client.EVMTokenAmount[]",
              "name": "destTokenAmounts",
              "type": "tuple[]"
            }
          ],
          "internalType": "struct Client.Any2EVMMessage",
          "name": "message",
          "type": "tuple"
        }
      ],
      "name": "ccipReceive",
      "outputs": [],
      "stateMutability": "nonpayable",
      "type": "function"
    },
    {
      "inputs": [],
      "name": "getConfiguration",
      "outputs": [
        {
          "internalType": "contract IConfiguration",
          "name": "configuration",
          "type": "address"
        }
      ],
      "stateMutability": "view",
      "type": "function"
    },
    {
      "inputs": [
        {
          "internalType": "bytes32",
          "name": "messageId",
          "type": "bytes32"
        }
      ],
      "name": "getFailedMessageContent",
      "outputs": [
        {
          "components": [
            {
              "internalType": "address",
              "name": "receiver",
              "type": "address"
            },
            {
              "components": [
                {
                  "internalType": "contract IERC20",
                  "name": "token",
                  "type": "address"
                },
                {
                  "internalType": "uint256",
                  "name": "amount",
                  "type": "uint256"
                }
              ],
              "internalType": "struct IBridge.TokenAmount",
              "name": "tokenAmount",
              "type": "tuple"
            }
          ],
          "internalType": "struct IBridge.FailedMessageContent",
          "name": "content",
          "type": "tuple"
        }
      ],
      "stateMutability": "view",
      "type": "function"
    },
    {
      "inputs": [
        {
          "internalType": "uint256",
          "name": "offset",
          "type": "uint256"
        },
        {
          "internalType": "uint256",
          "name": "limit",
          "type": "uint256"
        }
      ],
      "name": "getFailedMessages",
      "outputs": [
        {
          "components": [
            {
              "internalType": "bytes32",
              "name": "messageId",
              "type": "bytes32"
            },
            {
              "internalType": "enum IBridge.ErrorCode",
              "name": "errorCode",
              "type": "uint8"
            }
          ],
          "internalType": "struct IBridge.FailedMessage[]",
          "name": "failedMessages",
          "type": "tuple[]"
        }
      ],
      "stateMutability": "view",
      "type": "function"
    },
    {
      "inputs": [
        {
          "internalType": "uint64",
          "name": "destinationChainSelector",
          "type": "uint64"
        },
        {
          "internalType": "contract IERC20",
          "name": "token",
          "type": "address"
        },
        {
          "internalType": "uint256",
          "name": "amount",
          "type": "uint256"
        },
        {
          "internalType": "address",
          "name": "receiver",
          "type": "address"
        },
        {
          "internalType": "contract IERC20",
          "name": "feeToken",
          "type": "address"
        }
      ],
      "name": "getFee",
      "outputs": [
        {
          "internalType": "uint256",
          "name": "fees",
          "type": "uint256"
        }
      ],
      "stateMutability": "view",
      "type": "function"
    },
    {
      "inputs": [],
      "name": "getRouter",
      "outputs": [
        {
          "internalType": "address",
          "name": "router",
          "type": "address"
        }
      ],
      "stateMutability": "view",
      "type": "function"
    },
    {
      "inputs": [],
      "name": "owner",
      "outputs": [
        {
          "internalType": "address",
          "name": "",
          "type": "address"
        }
      ],
      "stateMutability": "view",
      "type": "function"
    },
    {
      "inputs": [],
      "name": "pendingOwner",
      "outputs": [
        {
          "internalType": "address",
          "name": "",
          "type": "address"
        }
      ],
      "stateMutability": "view",
      "type": "function"
    },
    {
      "inputs": [
        {
          "internalType": "bytes32",
          "name": "messageId",
          "type": "bytes32"
        },
        {
          "internalType": "address",
          "name": "senderBridge",
          "type": "address"
        },
        {
          "internalType": "uint64",
          "name": "sourceChainSelector",
          "type": "uint64"
        },
        {
          "internalType": "address",
          "name": "receiver",
          "type": "address"
        },
        {
          "components": [
            {
              "internalType": "contract IERC20",
              "name": "token",
              "type": "address"
            },
            {
              "internalType": "uint256",
              "name": "amount",
              "type": "uint256"
            }
          ],
          "internalType": "struct IBridge.TokenAmount",
          "name": "tokenAmount",
          "type": "tuple"
        }
      ],
      "name": "processMessage",
      "outputs": [],
      "stateMutability": "nonpayable",
      "type": "function"
    },
    {
      "inputs": [],
      "name": "renounceOwnership",
      "outputs": [],
      "stateMutability": "nonpayable",
      "type": "function"
    },
    {
      "inputs": [
        {
          "internalType": "bytes32",
          "name": "messageId",
          "type": "bytes32"
        },
        {
          "internalType": "address",
          "name": "tokenReceiver",
          "type": "address"
        }
      ],
      "name": "retryFailedMessage",
      "outputs": [],
      "stateMutability": "nonpayable",
      "type": "function"
    },
    {
      "inputs": [
        {
          "internalType": "contract IConfiguration",
          "name": "configuration",
          "type": "address"
        }
      ],
      "name": "setConfiguration",
      "outputs": [],
      "stateMutability": "nonpayable",
      "type": "function"
    },
    {
      "inputs": [
        {
          "internalType": "address",
          "name": "router",
          "type": "address"
        }
      ],
      "name": "setRouter",
      "outputs": [],
      "stateMutability": "nonpayable",
      "type": "function"
    },
    {
      "inputs": [
        {
          "internalType": "bytes4",
          "name": "interfaceId",
          "type": "bytes4"
        }
      ],
      "name": "supportsInterface",
      "outputs": [
        {
          "internalType": "bool",
          "name": "",
          "type": "bool"
        }
      ],
      "stateMutability": "pure",
      "type": "function"
    },
    {
      "inputs": [
        {
          "internalType": "address",
          "name": "newOwner",
          "type": "address"
        }
      ],
      "name": "transferOwnership",
      "outputs": [],
      "stateMutability": "nonpayable",
      "type": "function"
    },
    {
      "inputs": [
        {
          "internalType": "uint64",
          "name": "destinationChainSelector",
          "type": "uint64"
        },
        {
          "internalType": "contract IERC20",
          "name": "token",
          "type": "address"
        },
        {
          "internalType": "uint256",
          "name": "amount",
          "type": "uint256"
        },
        {
          "internalType": "address",
          "name": "receiver",
          "type": "address"
        },
        {
          "internalType": "contract IERC20",
          "name": "feeToken",
          "type": "address"
        }
      ],
      "name": "transferTokensToDestinationChain",
      "outputs": [
        {
          "internalType": "bytes32",
          "name": "messageId",
          "type": "bytes32"
        },
        {
          "internalType": "uint256",
          "name": "fees",
          "type": "uint256"
        }
      ],
      "stateMutability": "payable",
      "type": "function"
    }
  ],
  "transactionHash": "0xf0f6c1eb19c37e85bf4952456729002f5472d4d674435ad51f7080af232f403e",
  "args": [
    "0x0BF3dE8c5D3e8A2B34D2BEeB17ABfCeBaf363A59",
    "0xd9080d49b9ACae4268DfD10d27Fa5f9CACFAbd7b"
  ],
  "numDeployments": 1,
  "solcInputHash": "d857480a90d34cfbf00dcc818a263389",
  "bytecode": "0x60806040523480156200001157600080fd5b50604051620028ed380380620028ed8339810160408190526200003491620001e1565b33806200005c57604051631e4fbdf760e01b8152600060048201526024015b60405180910390fd5b62000067816200015d565b5060016002556001600160a01b03821662000099576040516335fdcccd60e21b81526000600482015260240162000053565b6001600160a01b038116620000c1576040516305db0ead60e31b815260040160405180910390fd5b600480546001600160a01b038085166001600160a01b0319928316811790935560038054918516919092161790556040513391906000907f13b847e4d386296a3ab56e943fb29c3b96a19c71dda0f5fb1f165cba81ae0179908290a460405133906001600160a01b038316906000907fa515a29cadc57c3f950e8c6526027a06266b9295aabafc452c7875f66f4c476c908290a4505062000220565b600180546001600160a01b031916905562000178816200017b565b50565b600080546001600160a01b038381166001600160a01b0319831681178455604051919092169283917f8be0079c531659141344cd1fd0a4f28419497f9722a3daafe3b4186f6b6457e09190a35050565b6001600160a01b03811681146200017857600080fd5b60008060408385031215620001f557600080fd5b82516200020281620001cb565b60208401519092506200021581620001cb565b809150509250929050565b6126bd80620002306000396000f3fe6080604052600436106100fe5760003560e01c806385572ffb11610095578063b0f479a111610064578063b0f479a1146102c4578063c0d78655146102e2578063e30c397814610302578063eb0f45fd14610320578063f2fde38b1461034057600080fd5b806385572ffb1461022b5780638d9d89fe1461024b5780638da5cb5b14610278578063a108c2521461029657600080fd5b8063627f09c3116100d1578063627f09c3146101af5780636bd50cef146101cf578063715018a61461020157806379ba50971461021657600080fd5b80630135f8371461010357806301ffc9a7146101305780631edd0ef614610160578063369f7f661461018d575b600080fd5b610116610111366004611ea5565b610360565b604080519283526020830191909152015b60405180910390f35b34801561013c57600080fd5b5061015061014b366004611f0b565b610c07565b6040519015158152602001610127565b34801561016c57600080fd5b5061018061017b366004611f35565b610c3e565b6040516101279190611f4e565b34801561019957600080fd5b506101ad6101a8366004611f8c565b610c93565b005b3480156101bb57600080fd5b506101ad6101ca366004611fbc565b610eb4565b3480156101db57600080fd5b506003546001600160a01b03165b6040516001600160a01b039091168152602001610127565b34801561020d57600080fd5b506101ad610f7c565b34801561022257600080fd5b506101ad610f90565b34801561023757600080fd5b506101ad610246366004611fd9565b610fd4565b34801561025757600080fd5b5061026b610266366004612013565b6111e3565b604051610127919061204b565b34801561028457600080fd5b506000546001600160a01b03166101e9565b3480156102a257600080fd5b506102b66102b1366004611ea5565b611305565b604051908152602001610127565b3480156102d057600080fd5b506004546001600160a01b03166101e9565b3480156102ee57600080fd5b506101ad6102fd366004611fbc565b61154f565b34801561030e57600080fd5b506001546001600160a01b03166101e9565b34801561032c57600080fd5b506101ad61033b366004612183565b6115e0565b34801561034c57600080fd5b506101ad61035b366004611fbc565b61184c565b60035460009081906001600160a01b031661038e5760405163502d4c1b60e01b815260040160405180910390fd5b856001600160a01b0381166103b65760405163dc2e5e8d60e01b815260040160405180910390fd5b6103be6118bd565b6001600160a01b0385166103e5576040516379bbce7960e11b815260040160405180910390fd5b876001600160401b031660000361040f5760405163def7b43160e01b815260040160405180910390fd5b60035460405163292accdf60e11b81526000916001600160a01b03169063525599be90610442908b908d906004016121e6565b600060405180830381865afa15801561045f573d6000803e3d6000fd5b505050506040513d6000823e601f3d908101601f19168201604052610487919081019061222c565b60208101519091506001600160a01b03166104c2578789604051632f6ada5d60e01b81526004016104b99291906121e6565b60405180910390fd5b60408101516001600160a01b03166104f85760405163250332d560e11b81526001600160a01b03891660048201526024016104b9565b80516001600160a01b031661052b57604051636c76fe7360e11b81526001600160401b038a1660048201526024016104b9565b80606001515160000361055c57604051636cbd6d1360e11b81526001600160401b038a1660048201526024016104b9565b600061057882600001518884602001518b8a87606001516118e5565b9050600061058e6004546001600160a01b031690565b6040516320487ded60e01b81529091506001600160a01b038216906320487ded906105bf908e908690600401612351565b602060405180830381865afa1580156105dc573d6000803e3d6000fd5b505050506040513d601f19601f82011682018060405250810190610600919061241f565b604084015190955061061f906001600160a01b038c169033908c6119fc565b82604001516001600160a01b031663503c28588a6040518263ffffffff1660e01b815260040161065191815260200190565b600060405180830381600087803b15801561066b57600080fd5b505af115801561067f573d6000803e3d6000fd5b5050505060003411156107fa576001600160a01b038716156106c5576040516349df019b60e11b81523460048201526001600160a01b03881660248201526044016104b9565b6000348611156106f1576040516311e9ebaf60e31b8152346004820152602481018790526044016104b9565b8534111561070657610703863461244e565b90505b816001600160a01b03166396f4e9f9878e866040518463ffffffff1660e01b8152600401610735929190612351565b60206040518083038185885af1158015610753573d6000803e3d6000fd5b50505050506040513d601f19601f82011682018060405250810190610778919061241f565b965080156107f457604051600090339083908381818185875af1925050503d80600081146107c2576040519150601f19603f3d011682016040523d82523d6000602084013e6107c7565b606091505b50509050806107f257604051631e0b196160e21b8152336004820152602481018390526044016104b9565b505b50610b51565b6001600160a01b0387166108215760405163234801ab60e21b815260040160405180910390fd5b6040516370a0823160e01b81523360048201526001600160a01b038816906370a0823190602401602060405180830381865afa158015610865573d6000803e3d6000fd5b505050506040513d601f19601f82011682018060405250810190610889919061241f565b85111561091c576040516370a0823160e01b81523360048201526001600160a01b038816906370a0823190602401602060405180830381865afa1580156108d4573d6000803e3d6000fd5b505050506040513d601f19601f820116820180604052508101906108f8919061241f565b6040516311e9ebaf60e31b81526004810191909152602481018690526044016104b9565b604051636eb1769f60e11b81523360048201523060248201526001600160a01b0388169063dd62ed3e90604401602060405180830381865afa158015610966573d6000803e3d6000fd5b505050506040513d601f19601f8201168201806040525081019061098a919061241f565b851115610a3557604051636eb1769f60e11b8152336004820152306024820152879086906001600160a01b0383169063dd62ed3e90604401602060405180830381865afa1580156109df573d6000803e3d6000fd5b505050506040513d601f19601f82011682018060405250810190610a03919061241f565b604051633880274360e01b81526001600160a01b039093166004840152602483019190915260448201526064016104b9565b610a4a6001600160a01b0388163330886119fc565b866001600160a01b031663095ea7b3610a6b6004546001600160a01b031690565b6040516001600160e01b031960e084901b1681526001600160a01b039091166004820152602481018890526044016020604051808303816000875af1158015610ab8573d6000803e3d6000fd5b505050506040513d601f19601f82011682018060405250810190610adc9190612461565b506040516396f4e9f960e01b81526001600160a01b038216906396f4e9f990610b0b908e908690600401612351565b6020604051808303816000875af1158015610b2a573d6000803e3d6000fd5b505050506040513d601f19601f82011682018060405250810190610b4e919061241f565b95505b6040516001600160a01b03891690339088907fc5f5ab18d19b8e46112af8a6edac567a88c72e33ecb2f629d1c7b0a2996fce0590600090a460408084015160208086015183516001600160a01b0391821681529182018d90529281018890526001600160401b038e1692918216918d16907f825417000078bf0b1ecfe352a3cc7107c8e5c834554392c1d0e62a8d6aa7d19a9060600160405180910390a4505050610bfc6001600255565b509550959350505050565b60006001600160e01b031982166385572ffb60e01b1480610c3857506001600160e01b031982166301ffc9a760e01b145b92915050565b610c46611e2e565b506000908152600860209081526040918290208251808401845281546001600160a01b03908116825284518086019095526001830154168452600290910154838301529081019190915290565b610c9b611a56565b6001610ca8600584611a83565b14610cc9576040516305b73c1360e51b8152600481018390526024016104b9565b610cd98260005b60059190611a96565b5060008281526008602090815260408083208151808301835281546001600160a01b03908116825283518085018552600184015482168152600290930154838601529381018290526003549151925163026151a560e11b81529284166004840152939216906304c2a34a90602401602060405180830381865afa158015610d64573d6000803e3d6000fd5b505050506040513d601f19601f82011682018060405250810190610d889190612483565b90506001600160a01b038116610dc35760208201515160405163250332d560e11b81526001600160a01b0390911660048201526024016104b9565b600084815260086020908152604080832080546001600160a01b03199081168255600182018054909116905560020192909255838101510151905163355a6d5760e21b815260048101919091526001600160a01b03848116602483015282169063d569b55c90604401600060405180830381600087803b158015610e4657600080fd5b505af1158015610e5a573d6000803e3d6000fd5b50505050826001600160a01b0316336001600160a01b0316857fd79210425ea4e320884072fc8db859ef6d344c3f57b2b2ff189a8c9876bf2a4d8560200151604051610ea691906124a0565b60405180910390a450505050565b610ebc611a56565b6001600160a01b038116610ee3576040516305db0ead60e31b815260040160405180910390fd5b6003546001600160a01b0390811690821603610f1d5760405163f1e2c27160e01b81526001600160a01b03821660048201526024016104b9565b60035460405133916001600160a01b03848116929116907fa515a29cadc57c3f950e8c6526027a06266b9295aabafc452c7875f66f4c476c90600090a4600380546001600160a01b0319166001600160a01b0392909216919091179055565b610f84611a56565b610f8e6000611aab565b565b60015433906001600160a01b03168114610fc85760405163118cdaa760e01b81526001600160a01b03821660048201526024016104b9565b610fd181611aab565b50565b6004546001600160a01b03163314611001576040516335fdcccd60e21b81523360048201526024016104b9565b600061101060408301836124c0565b81019061101d9190611fbc565b905060008061102f60608501856124c0565b81019061103c9190612506565b805191935091506001600160a01b03166110695760405163dc2e5e8d60e01b815260040160405180910390fd5b806020015160000361108e57604051634aef918f60e11b815260040160405180910390fd5b3063eb0f45fd8535856110a76040890160208a0161253c565b86866040518663ffffffff1660e01b81526004016110c9959493929190612557565b600060405180830381600087803b1580156110e357600080fd5b505af19250505080156110f4575060015b6111dd573d808015611122576040519150601f19603f3d011682016040523d82523d6000602084013e611127565b606091505b5061113485356001610cd0565b506040805180820182526001600160a01b0380861680835260208084018781528a35600081815260088452879020955186549086166001600160a01b03199182161787559151805160018801805491909716931692909217909455015160029093019290925591519091907f7b6480fef33762cce2f9dae93d50894adf25b32440affbb13cf5dc636e2ec8cb906111ce90869086906125a4565b60405180910390a35050505050565b50505050565b606060006111f16005611ac4565b905060008161120085876125d1565b1161120b5783611215565b611215858361244e565b9050806001600160401b0381111561122f5761122f6120b8565b60405190808252806020026020018201604052801561127457816020015b604080518082019091526000808252602082015281526020019060019003908161124d5790505b50925060005b818110156112fc5760008061129a611292848a6125d1565b600590611acf565b9150915060405180604001604052808381526020018260018111156112c1576112c1612035565b60018111156112d2576112d2612035565b8152508684815181106112e7576112e76125e4565b6020908102919091010152505060010161127a565b50505092915050565b6003546000906001600160a01b03166113315760405163502d4c1b60e01b815260040160405180910390fd5b846001600160a01b0381166113595760405163dc2e5e8d60e01b815260040160405180910390fd5b60035460405163292accdf60e11b81526000916001600160a01b03169063525599be9061138c908a908c906004016121e6565b600060405180830381865afa1580156113a9573d6000803e3d6000fd5b505050506040513d6000823e601f3d908101601f191682016040526113d1919081019061222c565b60208101519091506001600160a01b0316611403578688604051632f6ada5d60e01b81526004016104b99291906121e6565b60408101516001600160a01b03166114395760405163250332d560e11b81526001600160a01b03881660048201526024016104b9565b80516001600160a01b031661146c57604051636c76fe7360e11b81526001600160401b03891660048201526024016104b9565b80606001515160000361149d57604051636cbd6d1360e11b81526001600160401b03891660048201526024016104b9565b60006114b982600001518784602001518a8987606001516118e5565b905060006114cf6004546001600160a01b031690565b6040516320487ded60e01b81529091506001600160a01b038216906320487ded90611500908d908690600401612351565b602060405180830381865afa15801561151d573d6000803e3d6000fd5b505050506040513d601f19601f82011682018060405250810190611541919061241f565b9a9950505050505050505050565b611557611a56565b6001600160a01b038116611581576040516335fdcccd60e21b8152600060048201526024016104b9565b60045460405133916001600160a01b03848116929116907f13b847e4d386296a3ab56e943fb29c3b96a19c71dda0f5fb1f165cba81ae017990600090a4600480546001600160a01b0319166001600160a01b0392909216919091179055565b3330146116015760405162a19dbf60e81b81523360048201526024016104b9565b6001600160a01b038216611628576040516379bbce7960e11b815260040160405180910390fd5b6003548151604051637d5ecb8560e01b81526000926001600160a01b031691637d5ecb859161165c919088906004016121e6565b6040805180830381865afa158015611678573d6000803e3d6000fd5b505050506040513d601f19601f8201168201806040525081019061169c91906125fa565b905080600001516001600160a01b0316856001600160a01b0316146116f957805160405163b5275e6960e01b81526001600160401b03861660048201526001600160a01b03918216602482015290861660448201526064016104b9565b60208101516001600160a01b031661173257815160405163250332d560e11b81526001600160a01b0390911660048201526024016104b9565b6020808201519083015160405163355a6d5760e21b815260048101919091526001600160a01b0385811660248301529091169063d569b55c90604401600060405180830381600087803b15801561178857600080fd5b505af115801561179c573d6000803e3d6000fd5b50505050826001600160a01b0316856001600160a01b0316877fd2337c2a824f101db33d285f3d8ff29c73ade16f6750d8e399d1089554a74d8e60405160405180910390a4836001600160401b031681602001516001600160a01b031683600001516001600160a01b03167f74fcc3aa2edea86d35be26db50497256d120b3efc96e00afa3097b856016eb2f856020015160405161183c91815260200190565b60405180910390a4505050505050565b611854611a56565b600180546001600160a01b0383166001600160a01b031990911681179091556118856000546001600160a01b031690565b6001600160a01b03167f38d16b8cac22d99fc7c124b9cd0de2d3fa1faef420bfe791d8c362d765e2270060405160405180910390a350565b60028054036118df57604051633ee5aeb560e01b815260040160405180910390fd5b60028055565b6119206040518060a0016040528060608152602001606081526020016060815260200160006001600160a01b03168152602001606081525090565b6040805180820182526001600160a01b03878116825260208201879052825160a08101909352891660c0830152908060e081016040516020818303038152906040528152602001888360405160200161197a92919061263b565b60408051601f19818403018152919052815260200160006040519080825280602002602001820160405280156119d657816020015b60408051808201909152600080825260208201528152602001906001900390816119af5790505b508152602001856001600160a01b03168152602001848152509150509695505050505050565b604080516001600160a01b0385811660248301528416604482015260648082018490528251808303909101815260849091019091526020810180516001600160e01b03166323b872dd60e01b1790526111dd908590611aed565b6000546001600160a01b03163314610f8e5760405163118cdaa760e01b81523360048201526024016104b9565b6000611a8f8383611b55565b9392505050565b6000611aa3848484611b9c565b949350505050565b600180546001600160a01b0319169055610fd181611bb9565b6000610c3882611c09565b6000808080611ade8686611c14565b909450925050505b9250929050565b6000611b026001600160a01b03841683611c3f565b90508051600014158015611b27575080806020019051810190611b259190612461565b155b15611b5057604051635274afe760e01b81526001600160a01b03841660048201526024016104b9565b505050565b600081815260028301602052604081205480158015611b7b5750611b798484611c4d565b155b15611a8f5760405163015ab34360e11b8152600481018490526024016104b9565b60008281526002840160205260408120829055611aa38484611c59565b600080546001600160a01b038381166001600160a01b0319831681178455604051919092169283917f8be0079c531659141344cd1fd0a4f28419497f9722a3daafe3b4186f6b6457e09190a35050565b6000610c3882611c65565b60008080611c228585611c6f565b600081815260029690960160205260409095205494959350505050565b6060611a8f83836000611c7b565b6000611a8f8383611d18565b6000611a8f8383611d30565b6000610c38825490565b6000611a8f8383611d7f565b606081471015611ca05760405163cd78605960e01b81523060048201526024016104b9565b600080856001600160a01b03168486604051611cbc919061266b565b60006040518083038185875af1925050503d8060008114611cf9576040519150601f19603f3d011682016040523d82523d6000602084013e611cfe565b606091505b5091509150611d0e868383611da9565b9695505050505050565b60008181526001830160205260408120541515611a8f565b6000818152600183016020526040812054611d7757508154600181810184556000848152602080822090930184905584548482528286019093526040902091909155610c38565b506000610c38565b6000826000018281548110611d9657611d966125e4565b9060005260206000200154905092915050565b606082611dbe57611db982611e05565b611a8f565b8151158015611dd557506001600160a01b0384163b155b15611dfe57604051639996b31560e01b81526001600160a01b03851660048201526024016104b9565b5080611a8f565b805115611e155780518082602001fd5b604051630a12f52160e11b815260040160405180910390fd5b604051806040016040528060006001600160a01b03168152602001611e6f604051806040016040528060006001600160a01b03168152602001600081525090565b905290565b80356001600160401b0381168114611e8b57600080fd5b919050565b6001600160a01b0381168114610fd157600080fd5b600080600080600060a08688031215611ebd57600080fd5b611ec686611e74565b94506020860135611ed681611e90565b9350604086013592506060860135611eed81611e90565b91506080860135611efd81611e90565b809150509295509295909350565b600060208284031215611f1d57600080fd5b81356001600160e01b031981168114611a8f57600080fd5b600060208284031215611f4757600080fd5b5035919050565b81516001600160a01b031681526020808301516060830191611f859084018280516001600160a01b03168252602090810151910152565b5092915050565b60008060408385031215611f9f57600080fd5b823591506020830135611fb181611e90565b809150509250929050565b600060208284031215611fce57600080fd5b8135611a8f81611e90565b600060208284031215611feb57600080fd5b81356001600160401b0381111561200157600080fd5b820160a08185031215611a8f57600080fd5b6000806040838503121561202657600080fd5b50508035926020909101359150565b634e487b7160e01b600052602160045260246000fd5b60208082528251828201819052600091906040908185019086840185805b838110156120aa578251805186528701516002811061209657634e487b7160e01b83526021600452602483fd5b858801529385019391860191600101612069565b509298975050505050505050565b634e487b7160e01b600052604160045260246000fd5b604080519081016001600160401b03811182821017156120f0576120f06120b8565b60405290565b604051608081016001600160401b03811182821017156120f0576120f06120b8565b604051601f8201601f191681016001600160401b0381118282101715612140576121406120b8565b604052919050565b60006040828403121561215a57600080fd5b6121626120ce565b9050813561216f81611e90565b808252506020820135602082015292915050565b600080600080600060c0868803121561219b57600080fd5b8535945060208601356121ad81611e90565b93506121bb60408701611e74565b925060608601356121cb81611e90565b91506121da8760808801612148565b90509295509295909350565b6001600160a01b039290921682526001600160401b0316602082015260400190565b60005b8381101561222357818101518382015260200161220b565b50506000910152565b6000602080838503121561223f57600080fd5b82516001600160401b038082111561225657600080fd5b908401906080828703121561226a57600080fd5b6122726120f6565b825161227d81611e90565b81528284015161228c81611e90565b81850152604083015161229e81611e90565b60408201526060830151828111156122b557600080fd5b80840193505086601f8401126122ca57600080fd5b8251828111156122dc576122dc6120b8565b6122ee601f8201601f19168601612118565b9250808352878582860101111561230457600080fd5b61231381868501878701612208565b50606081019190915295945050505050565b6000815180845261233d816020860160208601612208565b601f01601f19169290920160200192915050565b600060406001600160401b03851683526020604081850152845160a0604086015261237f60e0860182612325565b905081860151603f198087840301606088015261239c8383612325565b6040890151888203830160808a01528051808352908601945060009350908501905b808410156123f057845180516001600160a01b03168352860151868301529385019360019390930192908601906123be565b5060608901516001600160a01b031660a08901526080890151888203830160c08a015295506115418187612325565b60006020828403121561243157600080fd5b5051919050565b634e487b7160e01b600052601160045260246000fd5b81810381811115610c3857610c38612438565b60006020828403121561247357600080fd5b81518015158114611a8f57600080fd5b60006020828403121561249557600080fd5b8151611a8f81611e90565b81516001600160a01b031681526020808301519082015260408101610c38565b6000808335601e198436030181126124d757600080fd5b8301803591506001600160401b038211156124f157600080fd5b602001915036819003821315611ae657600080fd5b6000806060838503121561251957600080fd5b823561252481611e90565b91506125338460208501612148565b90509250929050565b60006020828403121561254e57600080fd5b611a8f82611e74565b8581526001600160a01b0385811660208301526001600160401b03851660408301528316606082015260c08101611d0e608083018480516001600160a01b03168252602090810151910152565b82516001600160a01b0316815260208084015190820152606060408201526000611aa36060830184612325565b80820180821115610c3857610c38612438565b634e487b7160e01b600052603260045260246000fd5b60006040828403121561260c57600080fd5b6126146120ce565b825161261f81611e90565b8152602083015161262f81611e90565b60208201529392505050565b6001600160a01b038316815260608101611a8f602083018480516001600160a01b03168252602090810151910152565b6000825161267d818460208701612208565b919091019291505056fea264697066735822122003443ede11580a39a8c5370c928a61495a3cae06124f91fcc5a72c34f6a45a7164736f6c63430008180033",
  "devdoc": {
    "errors": {
      "AddressEmptyCode(address)": [
        {
          "details": "There's no code at `target` (it is not a contract)."
        }
      ],
      "AddressInsufficientBalance(address)": [
        {
          "details": "The ETH balance of the account is not enough to perform the operation."
        }
      ],
      "EnumerableMapNonexistentKey(bytes32)": [
        {
          "details": "Query for a nonexistent map key."
        }
      ],
      "FailedInnerCall()": [
        {
          "details": "A call to an address target failed. The target may have reverted."
        }
      ],
      "OwnableInvalidOwner(address)": [
        {
          "details": "The owner is not a valid owner account. (eg. `address(0)`)"
        }
      ],
      "OwnableUnauthorizedAccount(address)": [
        {
          "details": "The caller account is not authorized to perform an operation."
        }
      ],
      "ReentrancyGuardReentrantCall()": [
        {
          "details": "Unauthorized reentrant call."
        }
      ],
      "SafeERC20FailedOperation(address)": [
        {
          "details": "An operation with an ERC20 token failed."
        }
      ]
    },
    "kind": "dev",
    "methods": {
      "acceptOwnership()": {
        "details": "The new owner accepts the ownership transfer."
      },
      "ccipReceive((bytes32,uint64,bytes,bytes,(address,uint256)[]))": {
        "details": "Note ensure you check the msg.sender is the OffRampRouter",
        "params": {
          "message": "CCIP Message"
        }
      },
      "owner()": {
        "details": "Returns the address of the current owner."
      },
      "pendingOwner()": {
        "details": "Returns the address of the pending owner."
      },
      "renounceOwnership()": {
        "details": "Leaves the contract without owner. It will not be possible to call `onlyOwner` functions. Can only be called by the current owner. NOTE: Renouncing ownership will leave the contract without an owner, thereby disabling any functionality that is only available to the owner."
      },
      "supportsInterface(bytes4)": {
        "details": "Should indicate whether the contract implements IAny2EVMMessageReceiver e.g. return interfaceId == type(IAny2EVMMessageReceiver).interfaceId || interfaceId == type(IERC165).interfaceId This allows CCIP to check if ccipReceive is available before calling it. If this returns false or reverts, only tokens are transferred to the receiver. If this returns true, tokens are transferred and ccipReceive is called atomically. Additionally, if the receiver address does not have code associated with it at the time of execution (EXTCODESIZE returns 0), only tokens will be transferred.",
        "params": {
          "interfaceId": "The interfaceId to check"
        },
        "returns": {
          "_0": "true if the interfaceId is supported"
        }
      },
      "transferOwnership(address)": {
        "details": "Starts the ownership transfer of the contract to a new account. Replaces the pending transfer if there is one. Can only be called by the current owner."
      }
    },
    "version": 1
  },
  "userdoc": {
    "kind": "user",
    "methods": {
      "ccipReceive((bytes32,uint64,bytes,bytes,(address,uint256)[]))": {
        "notice": "Called by the Router to deliver a message. If this reverts, any token transfers also revert. The message will move to a FAILED state and become available for manual execution."
      },
      "supportsInterface(bytes4)": {
        "notice": "IERC165 supports an interfaceId"
      }
    },
    "version": 1
  },
  "storageLayout": {
    "storage": [
      {
        "astId": 129,
        "contract": "contracts/bridge/Bridge.sol:Bridge",
        "label": "_owner",
        "offset": 0,
        "slot": "0",
        "type": "t_address"
      },
      {
        "astId": 277,
        "contract": "contracts/bridge/Bridge.sol:Bridge",
        "label": "_pendingOwner",
        "offset": 0,
        "slot": "1",
        "type": "t_address"
      },
      {
        "astId": 1970,
        "contract": "contracts/bridge/Bridge.sol:Bridge",
        "label": "_status",
        "offset": 0,
        "slot": "2",
        "type": "t_uint256"
      },
      {
        "astId": 5669,
        "contract": "contracts/bridge/Bridge.sol:Bridge",
        "label": "s_configuration",
        "offset": 0,
        "slot": "3",
        "type": "t_contract(IConfiguration)7918"
      },
      {
        "astId": 5671,
        "contract": "contracts/bridge/Bridge.sol:Bridge",
        "label": "s_ccipRouter",
        "offset": 0,
        "slot": "4",
        "type": "t_address"
      },
      {
        "astId": 5674,
        "contract": "contracts/bridge/Bridge.sol:Bridge",
        "label": "s_failedMessages",
        "offset": 0,
        "slot": "5",
        "type": "t_struct(Bytes32ToUintMap)4020_storage"
      },
      {
        "astId": 5679,
        "contract": "contracts/bridge/Bridge.sol:Bridge",
        "label": "s_messageContents",
        "offset": 0,
        "slot": "8",
        "type": "t_mapping(t_bytes32,t_struct(FailedMessageContent)7415_storage)"
      }
    ],
    "types": {
      "t_address": {
        "encoding": "inplace",
        "label": "address",
        "numberOfBytes": "20"
      },
      "t_array(t_bytes32)dyn_storage": {
        "base": "t_bytes32",
        "encoding": "dynamic_array",
        "label": "bytes32[]",
        "numberOfBytes": "32"
      },
      "t_bytes32": {
        "encoding": "inplace",
        "label": "bytes32",
        "numberOfBytes": "32"
      },
      "t_contract(IConfiguration)7918": {
        "encoding": "inplace",
        "label": "contract IConfiguration",
        "numberOfBytes": "20"
      },
      "t_contract(IERC20)1207": {
        "encoding": "inplace",
        "label": "contract IERC20",
        "numberOfBytes": "20"
      },
      "t_mapping(t_bytes32,t_bytes32)": {
        "encoding": "mapping",
        "key": "t_bytes32",
        "label": "mapping(bytes32 => bytes32)",
        "numberOfBytes": "32",
        "value": "t_bytes32"
      },
      "t_mapping(t_bytes32,t_struct(FailedMessageContent)7415_storage)": {
        "encoding": "mapping",
        "key": "t_bytes32",
        "label": "mapping(bytes32 => struct IBridge.FailedMessageContent)",
        "numberOfBytes": "32",
        "value": "t_struct(FailedMessageContent)7415_storage"
      },
      "t_mapping(t_bytes32,t_uint256)": {
        "encoding": "mapping",
        "key": "t_bytes32",
        "label": "mapping(bytes32 => uint256)",
        "numberOfBytes": "32",
        "value": "t_uint256"
      },
      "t_struct(Bytes32Set)4414_storage": {
        "encoding": "inplace",
        "label": "struct EnumerableSet.Bytes32Set",
        "members": [
          {
            "astId": 4413,
            "contract": "contracts/bridge/Bridge.sol:Bridge",
            "label": "_inner",
            "offset": 0,
            "slot": "0",
            "type": "t_struct(Set)4220_storage"
          }
        ],
        "numberOfBytes": "64"
      },
      "t_struct(Bytes32ToBytes32Map)3116_storage": {
        "encoding": "inplace",
        "label": "struct EnumerableMap.Bytes32ToBytes32Map",
        "members": [
          {
            "astId": 3111,
            "contract": "contracts/bridge/Bridge.sol:Bridge",
            "label": "_keys",
            "offset": 0,
            "slot": "0",
            "type": "t_struct(Bytes32Set)4414_storage"
          },
          {
            "astId": 3115,
            "contract": "contracts/bridge/Bridge.sol:Bridge",
            "label": "_values",
            "offset": 0,
            "slot": "2",
            "type": "t_mapping(t_bytes32,t_bytes32)"
          }
        ],
        "numberOfBytes": "96"
      },
      "t_struct(Bytes32ToUintMap)4020_storage": {
        "encoding": "inplace",
        "label": "struct EnumerableMap.Bytes32ToUintMap",
        "members": [
          {
            "astId": 4019,
            "contract": "contracts/bridge/Bridge.sol:Bridge",
            "label": "_inner",
            "offset": 0,
            "slot": "0",
            "type": "t_struct(Bytes32ToBytes32Map)3116_storage"
          }
        ],
        "numberOfBytes": "96"
      },
      "t_struct(FailedMessageContent)7415_storage": {
        "encoding": "inplace",
        "label": "struct IBridge.FailedMessageContent",
        "members": [
          {
            "astId": 7411,
            "contract": "contracts/bridge/Bridge.sol:Bridge",
            "label": "receiver",
            "offset": 0,
            "slot": "0",
            "type": "t_address"
          },
          {
            "astId": 7414,
            "contract": "contracts/bridge/Bridge.sol:Bridge",
            "label": "tokenAmount",
            "offset": 0,
            "slot": "1",
            "type": "t_struct(TokenAmount)7409_storage"
          }
        ],
        "numberOfBytes": "96"
      },
      "t_struct(Set)4220_storage": {
        "encoding": "inplace",
        "label": "struct EnumerableSet.Set",
        "members": [
          {
            "astId": 4215,
            "contract": "contracts/bridge/Bridge.sol:Bridge",
            "label": "_values",
            "offset": 0,
            "slot": "0",
            "type": "t_array(t_bytes32)dyn_storage"
          },
          {
            "astId": 4219,
            "contract": "contracts/bridge/Bridge.sol:Bridge",
            "label": "_positions",
            "offset": 0,
            "slot": "1",
            "type": "t_mapping(t_bytes32,t_uint256)"
          }
        ],
        "numberOfBytes": "64"
      },
      "t_struct(TokenAmount)7409_storage": {
        "encoding": "inplace",
        "label": "struct IBridge.TokenAmount",
        "members": [
          {
            "astId": 7406,
            "contract": "contracts/bridge/Bridge.sol:Bridge",
            "label": "token",
            "offset": 0,
            "slot": "0",
            "type": "t_contract(IERC20)1207"
          },
          {
            "astId": 7408,
            "contract": "contracts/bridge/Bridge.sol:Bridge",
            "label": "amount",
            "offset": 0,
            "slot": "1",
            "type": "t_uint256"
          }
        ],
        "numberOfBytes": "64"
      },
      "t_uint256": {
        "encoding": "inplace",
        "label": "uint256",
        "numberOfBytes": "32"
      }
    }
  }
}