{
  "address": "0x080297769cF00B69D17d44aED3626CaAb52Cf1b6",
  "abi": [
    {
      "inputs": [],
      "stateMutability": "nonpayable",
      "type": "constructor"
    },
    {
      "inputs": [
        {
          "internalType": "address",
          "name": "target",
          "type": "address"
        }
      ],
      "name": "AddressEmptyCode",
      "type": "error"
    },
    {
      "inputs": [
        {
          "internalType": "address",
          "name": "account",
          "type": "address"
        }
      ],
      "name": "AddressInsufficientBalance",
      "type": "error"
    },
    {
      "inputs": [],
      "name": "FailedInnerCall",
      "type": "error"
    },
    {
      "inputs": [
        {
          "internalType": "address",
          "name": "owner",
          "type": "address"
        }
      ],
      "name": "OwnableInvalidOwner",
      "type": "error"
    },
    {
      "inputs": [
        {
          "internalType": "address",
          "name": "account",
          "type": "address"
        }
      ],
      "name": "OwnableUnauthorizedAccount",
      "type": "error"
    },
    {
      "inputs": [
        {
          "internalType": "address",
          "name": "token",
          "type": "address"
        }
      ],
      "name": "SafeERC20FailedOperation",
      "type": "error"
    },
    {
      "anonymous": false,
      "inputs": [
        {
          "indexed": true,
          "internalType": "address",
          "name": "owner",
          "type": "address"
        },
        {
          "indexed": true,
          "internalType": "address",
          "name": "spender",
          "type": "address"
        },
        {
          "indexed": false,
          "internalType": "uint256",
          "name": "value",
          "type": "uint256"
        }
      ],
      "name": "Approval",
      "type": "event"
    },
    {
      "anonymous": false,
      "inputs": [
        {
          "indexed": false,
          "internalType": "address",
          "name": "minter",
          "type": "address"
        },
        {
          "indexed": false,
          "internalType": "address",
          "name": "newMinter",
          "type": "address"
        }
      ],
      "name": "MinterChanged",
      "type": "event"
    },
    {
      "anonymous": false,
      "inputs": [
        {
          "indexed": true,
          "internalType": "address",
          "name": "previousOwner",
          "type": "address"
        },
        {
          "indexed": true,
          "internalType": "address",
          "name": "newOwner",
          "type": "address"
        }
      ],
      "name": "OwnershipTransferred",
      "type": "event"
    },
    {
      "anonymous": false,
      "inputs": [
        {
          "indexed": true,
          "internalType": "address",
          "name": "from",
          "type": "address"
        },
        {
          "indexed": true,
          "internalType": "address",
          "name": "to",
          "type": "address"
        },
        {
          "indexed": false,
          "internalType": "uint256",
          "name": "value",
          "type": "uint256"
        }
      ],
      "name": "Transfer",
      "type": "event"
    },
    {
      "anonymous": false,
      "inputs": [
        {
          "indexed": true,
          "internalType": "address",
          "name": "receiver",
          "type": "address"
        },
        {
          "indexed": true,
          "internalType": "address",
          "name": "tokenAddress",
          "type": "address"
        },
        {
          "indexed": true,
          "internalType": "uint256",
          "name": "tokenId",
          "type": "uint256"
        },
        {
          "indexed": false,
          "internalType": "uint256",
          "name": "amount",
          "type": "uint256"
        }
      ],
      "name": "WithdrawStuckERC1155",
      "type": "event"
    },
    {
      "anonymous": false,
      "inputs": [
        {
          "indexed": true,
          "internalType": "address",
          "name": "receiver",
          "type": "address"
        },
        {
          "indexed": true,
          "internalType": "address",
          "name": "tokenAddress",
          "type": "address"
        },
        {
          "indexed": false,
          "internalType": "uint256",
          "name": "amount",
          "type": "uint256"
        }
      ],
      "name": "WithdrawStuckERC20",
      "type": "event"
    },
    {
      "anonymous": false,
      "inputs": [
        {
          "indexed": true,
          "internalType": "address",
          "name": "receiver",
          "type": "address"
        },
        {
          "indexed": true,
          "internalType": "address",
          "name": "tokenAddress",
          "type": "address"
        },
        {
          "indexed": true,
          "internalType": "uint256",
          "name": "tokenId",
          "type": "uint256"
        }
      ],
      "name": "WithdrawStuckERC721",
      "type": "event"
    },
    {
      "anonymous": false,
      "inputs": [
        {
          "indexed": true,
          "internalType": "address",
          "name": "receiver",
          "type": "address"
        },
        {
          "indexed": false,
          "internalType": "uint256",
          "name": "amount",
          "type": "uint256"
        }
      ],
      "name": "WithdrawStuckEther",
      "type": "event"
    },
    {
      "inputs": [],
      "name": "DOMAIN_SEPARATOR",
      "outputs": [
        {
          "internalType": "bytes32",
          "name": "",
          "type": "bytes32"
        }
      ],
      "stateMutability": "view",
      "type": "function"
    },
    {
      "inputs": [],
      "name": "INFLATION_CAP",
      "outputs": [
        {
          "internalType": "uint8",
          "name": "",
          "type": "uint8"
        }
      ],
      "stateMutability": "view",
      "type": "function"
    },
    {
      "inputs": [],
      "name": "INFLATION_EPOCH",
      "outputs": [
        {
          "internalType": "uint32",
          "name": "",
          "type": "uint32"
        }
      ],
      "stateMutability": "view",
      "type": "function"
    },
    {
      "inputs": [],
      "name": "INITIAL_SUPPLY",
      "outputs": [
        {
          "internalType": "uint256",
          "name": "",
          "type": "uint256"
        }
      ],
      "stateMutability": "view",
      "type": "function"
    },
    {
      "inputs": [],
      "name": "PERMIT_TYPEHASH",
      "outputs": [
        {
          "internalType": "bytes32",
          "name": "",
          "type": "bytes32"
        }
      ],
      "stateMutability": "view",
      "type": "function"
    },
    {
      "inputs": [
        {
          "internalType": "address",
          "name": "owner",
          "type": "address"
        },
        {
          "internalType": "address",
          "name": "spender",
          "type": "address"
        }
      ],
      "name": "allowance",
      "outputs": [
        {
          "internalType": "uint256",
          "name": "",
          "type": "uint256"
        }
      ],
      "stateMutability": "view",
      "type": "function"
    },
    {
      "inputs": [
        {
          "internalType": "address",
          "name": "spender",
          "type": "address"
        },
        {
          "internalType": "uint256",
          "name": "wad",
          "type": "uint256"
        }
      ],
      "name": "approve",
      "outputs": [
        {
          "internalType": "bool",
          "name": "",
          "type": "bool"
        }
      ],
      "stateMutability": "nonpayable",
      "type": "function"
    },
    {
      "inputs": [
        {
          "internalType": "address",
          "name": "guy",
          "type": "address"
        }
      ],
      "name": "balanceOf",
      "outputs": [
        {
          "internalType": "uint256",
          "name": "",
          "type": "uint256"
        }
      ],
      "stateMutability": "view",
      "type": "function"
    },
    {
      "inputs": [],
      "name": "decimals",
      "outputs": [
        {
          "internalType": "uint256",
          "name": "",
          "type": "uint256"
        }
      ],
      "stateMutability": "view",
      "type": "function"
    },
    {
      "inputs": [
        {
          "internalType": "address",
          "name": "receiver",
          "type": "address"
        },
        {
          "internalType": "uint256",
          "name": "amount",
          "type": "uint256"
        }
      ],
      "name": "mint",
      "outputs": [],
      "stateMutability": "nonpayable",
      "type": "function"
    },
    {
      "inputs": [],
      "name": "minter",
      "outputs": [
        {
          "internalType": "address",
          "name": "",
          "type": "address"
        }
      ],
      "stateMutability": "view",
      "type": "function"
    },
    {
      "inputs": [],
      "name": "mintingAllowedAfter",
      "outputs": [
        {
          "internalType": "uint256",
          "name": "",
          "type": "uint256"
        }
      ],
      "stateMutability": "view",
      "type": "function"
    },
    {
      "inputs": [],
      "name": "name",
      "outputs": [
        {
          "internalType": "string",
          "name": "",
          "type": "string"
        }
      ],
      "stateMutability": "view",
      "type": "function"
    },
    {
      "inputs": [
        {
          "internalType": "address",
          "name": "",
          "type": "address"
        }
      ],
      "name": "nonces",
      "outputs": [
        {
          "internalType": "uint256",
          "name": "",
          "type": "uint256"
        }
      ],
      "stateMutability": "view",
      "type": "function"
    },
    {
      "inputs": [],
      "name": "owner",
      "outputs": [
        {
          "internalType": "address",
          "name": "",
          "type": "address"
        }
      ],
      "stateMutability": "view",
      "type": "function"
    },
    {
      "inputs": [
        {
          "internalType": "address",
          "name": "owner",
          "type": "address"
        },
        {
          "internalType": "address",
          "name": "spender",
          "type": "address"
        },
        {
          "internalType": "uint256",
          "name": "amount",
          "type": "uint256"
        },
        {
          "internalType": "uint256",
          "name": "deadline",
          "type": "uint256"
        },
        {
          "internalType": "uint8",
          "name": "v",
          "type": "uint8"
        },
        {
          "internalType": "bytes32",
          "name": "r",
          "type": "bytes32"
        },
        {
          "internalType": "bytes32",
          "name": "s",
          "type": "bytes32"
        }
      ],
      "name": "permit",
      "outputs": [],
      "stateMutability": "nonpayable",
      "type": "function"
    },
    {
      "inputs": [],
      "name": "renounceOwnership",
      "outputs": [],
      "stateMutability": "nonpayable",
      "type": "function"
    },
    {
      "inputs": [
        {
          "internalType": "address",
          "name": "newMinter",
          "type": "address"
        }
      ],
      "name": "setMinter",
      "outputs": [],
      "stateMutability": "nonpayable",
      "type": "function"
    },
    {
      "inputs": [],
      "name": "symbol",
      "outputs": [
        {
          "internalType": "string",
          "name": "",
          "type": "string"
        }
      ],
      "stateMutability": "view",
      "type": "function"
    },
    {
      "inputs": [],
      "name": "totalSupply",
      "outputs": [
        {
          "internalType": "uint256",
          "name": "",
          "type": "uint256"
        }
      ],
      "stateMutability": "view",
      "type": "function"
    },
    {
      "inputs": [
        {
          "internalType": "address",
          "name": "dst",
          "type": "address"
        },
        {
          "internalType": "uint256",
          "name": "wad",
          "type": "uint256"
        }
      ],
      "name": "transfer",
      "outputs": [
        {
          "internalType": "bool",
          "name": "",
          "type": "bool"
        }
      ],
      "stateMutability": "nonpayable",
      "type": "function"
    },
    {
      "inputs": [
        {
          "internalType": "address",
          "name": "src",
          "type": "address"
        },
        {
          "internalType": "address",
          "name": "dst",
          "type": "address"
        },
        {
          "internalType": "uint256",
          "name": "wad",
          "type": "uint256"
        }
      ],
      "name": "transferFrom",
      "outputs": [
        {
          "internalType": "bool",
          "name": "",
          "type": "bool"
        }
      ],
      "stateMutability": "nonpayable",
      "type": "function"
    },
    {
      "inputs": [
        {
          "internalType": "address",
          "name": "newOwner",
          "type": "address"
        }
      ],
      "name": "transferOwnership",
      "outputs": [],
      "stateMutability": "nonpayable",
      "type": "function"
    },
    {
      "inputs": [],
      "name": "version",
      "outputs": [
        {
          "internalType": "string",
          "name": "",
          "type": "string"
        }
      ],
      "stateMutability": "pure",
      "type": "function"
    },
    {
      "inputs": [
        {
          "internalType": "address payable",
          "name": "receiver",
          "type": "address"
        },
        {
          "internalType": "address",
          "name": "tokenAddress",
          "type": "address"
        },
        {
          "internalType": "uint256",
          "name": "tokenId",
          "type": "uint256"
        }
      ],
      "name": "withdrawERC721",
      "outputs": [],
      "stateMutability": "nonpayable",
      "type": "function"
    },
    {
      "inputs": [
        {
          "internalType": "address payable",
          "name": "receiver",
          "type": "address"
        },
        {
          "internalType": "address",
          "name": "tokenAddress",
          "type": "address"
        },
        {
          "internalType": "uint256",
          "name": "amount",
          "type": "uint256"
        }
      ],
      "name": "withdrawErc20",
      "outputs": [],
      "stateMutability": "nonpayable",
      "type": "function"
    },
    {
      "inputs": [
        {
          "internalType": "address payable",
          "name": "receiver",
          "type": "address"
        },
        {
          "internalType": "uint256",
          "name": "amount",
          "type": "uint256"
        }
      ],
      "name": "withdrawEther",
      "outputs": [],
      "stateMutability": "nonpayable",
      "type": "function"
    }
  ],
  "transactionHash": "0x719d224cdd7380e930688d261766f2b8307d47a09cb8246825c19307e2ea5f8e",
  "args": [],
  "numDeployments": 1,
  "solcInputHash": "d857480a90d34cfbf00dcc818a263389",
  "bytecode": "0x601260045560e0604052600060c09081526005906200001f90826200029f565b507f6e71edae12b1b97f4d1f60370fef10105fa2faae0126114a169c64845d6126c96080523480156200005157600080fd5b50336040518060400160405280601881526020017f43686172676564205061727469636c6573202d20494f4e580000000000000000815250604051806040016040528060048152602001630929e9cb60e31b81525081818160059081620000b991906200029f565b506003620000c882826200029f565b5050825160208401204691507f8b73c3c69bb8fe3d512ecc4cf759cc79239f7b179b0ffacaa9a75d522b39400f90620001156040805180820190915260018152603160f81b602082015290565b80516020918201206040805192830194909452928101919091526060810191909152608081018290523060a082015260c00160408051601f19818403018152919052805160209091012060a0525050506001600160a01b0381166200019457604051631e4fbdf760e01b81526000600482015260240160405180910390fd5b6200019f81620001a6565b506200036b565b600780546001600160a01b038381166001600160a01b0319831681179093556040519116919082907f8be0079c531659141344cd1fd0a4f28419497f9722a3daafe3b4186f6b6457e090600090a35050565b634e487b7160e01b600052604160045260246000fd5b600181811c908216806200022357607f821691505b6020821081036200024457634e487b7160e01b600052602260045260246000fd5b50919050565b601f8211156200029a576000816000526020600020601f850160051c81016020861015620002755750805b601f850160051c820191505b81811015620002965782815560010162000281565b5050505b505050565b81516001600160401b03811115620002bb57620002bb620001f8565b620002d381620002cc84546200020e565b846200024a565b602080601f8311600181146200030b5760008415620002f25750858301515b600019600386901b1c1916600185901b17855562000296565b600085815260208120601f198616915b828110156200033c578886015182559484019460019091019084016200031b565b50858210156200035b5787850151600019600388901b60f8161c191681555b5050505050600190811b01905550565b60805160a0516115716200039f600039600081816102de01526108a20152600081816102a5015261080d01526115716000f3fe608060405234801561001057600080fd5b50600436106101a95760003560e01c80634025feb2116100f95780638da5cb5b11610097578063d505accf11610071578063d505accf146103d3578063dd62ed3e146103e6578063f2fde38b1461041f578063fca3b5aa1461043257600080fd5b80638da5cb5b146103a757806395d89b41146103b8578063a9059cbb146103c057600080fd5b806354fd4d50116100d357806354fd4d501461033957806370a0823114610356578063715018a61461037f5780637ecebe001461038757600080fd5b80634025feb21461030057806340c10f1914610313578063522f68151461032657600080fd5b80631dcb3a3c1161016657806330adf81f1161014057806330adf81f146102a057806330b36cef146102c7578063313ce567146102d05780633644e515146102d957600080fd5b80631dcb3a3c1461026157806323b872dd1461027b5780632ff2e9dc1461028e57600080fd5b806306fdde03146101ae57806307546172146101cc578063095ea7b3146101f75780630d1715be1461021a5780631593dee11461023a57806318160ddd1461024f575b600080fd5b6101b6610445565b6040516101c3919061125a565b60405180910390f35b6008546101df906001600160a01b031681565b6040516001600160a01b0390911681526020016101c3565b61020a6102053660046112a2565b6104d3565b60405190151581526020016101c3565b6102256301e1338081565b60405163ffffffff90911681526020016101c3565b61024d6102483660046112ce565b6104e9565b005b6000545b6040519081526020016101c3565b610269600281565b60405160ff90911681526020016101c3565b61020a6102893660046112ce565b610501565b6102536a52b7d2dcc80cd2e400000081565b6102537f000000000000000000000000000000000000000000000000000000000000000081565b61025360095481565b61025360045481565b6102537f000000000000000000000000000000000000000000000000000000000000000081565b61024d61030e3660046112ce565b6105bd565b61024d6103213660046112a2565b6105d0565b61024d6103343660046112a2565b61075d565b6040805180820190915260018152603160f81b60208201526101b6565b61025361036436600461130f565b6001600160a01b031660009081526001602052604090205490565b61024d610773565b61025361039536600461130f565b60066020526000908152604090205481565b6007546001600160a01b03166101df565b6101b6610787565b61020a6103ce3660046112a2565b610794565b61024d6103e136600461132c565b6107a1565b6102536103f43660046113a3565b6001600160a01b03918216600090815260026020908152604080832093909416825291909152205490565b61024d61042d36600461130f565b6109da565b61024d61044036600461130f565b610a18565b60058054610452906113dc565b80601f016020809104026020016040519081016040528092919081815260200182805461047e906113dc565b80156104cb5780601f106104a0576101008083540402835291602001916104cb565b820191906000526020600020905b8154815290600101906020018083116104ae57829003601f168201915b505050505081565b60006104e0338484610a89565b90505b92915050565b6104f1610af2565b6104fc838383610b1f565b505050565b6001600160a01b038316600081815260026020908152604080832033808552925282205491921480159061053757506000198114155b156105a757828110156105915760405162461bcd60e51b815260206004820152601c60248201527f45524332303a20496e73756666696369656e7420617070726f76616c0000000060448201526064015b60405180910390fd5b6105a585336105a0868561142c565b610a89565b505b6105b2858585610c1a565b9150505b9392505050565b6105c5610af2565b6104fc838383610d2a565b6008546001600160a01b031633146106175760405162461bcd60e51b815260206004820152600a602482015269496f6e783a452d31313360b01b6044820152606401610588565b6009544210156106565760405162461bcd60e51b815260206004820152600a602482015269125bdb9e0e914b4c4c4d60b21b6044820152606401610588565b6001600160a01b0382166106995760405162461bcd60e51b815260206004820152600a602482015269496f6e783a452d34303360b01b6044820152606401610588565b8060006106a560005490565b90506a52b7d2dcc80cd2e400000081106106ec576009546106cb906301e133809061143f565b60095560646106db600283611452565b6106e59190611469565b915061074d565b6a52b7d2dcc80cd2e4000000610702838361143f565b11156107205761071d816a52b7d2dcc80cd2e400000061142c565b91505b6a52b7d2dcc80cd2e4000000610736838361143f565b0361074d576107496301e133804261143f565b6009555b6107578483610e77565b50505050565b610765610af2565b61076f8282610f0b565b5050565b61077b610af2565b6107856000610f91565b565b60038054610452906113dc565b60006104e0338484610c1a565b428410156107f15760405162461bcd60e51b815260206004820152601d60248201527f45524332305065726d69743a206578706972656420646561646c696e650000006044820152606401610588565b6001600160a01b038716600090815260066020526040812080547f0000000000000000000000000000000000000000000000000000000000000000918a918a918a91908661083e8361148b565b909155506040805160208101969096526001600160a01b0394851690860152929091166060840152608083015260a082015260c0810186905260e00160408051601f1981840301815290829052805160209182012061190160f01b918301919091527f0000000000000000000000000000000000000000000000000000000000000000602283015260428201819052915060009060620160408051601f198184030181528282528051602091820120600080855291840180845281905260ff89169284019290925260608301879052608083018690529092509060019060a0016020604051602081039080840390855afa158015610940573d6000803e3d6000fd5b5050604051601f1901519150506001600160a01b038116158015906109765750896001600160a01b0316816001600160a01b0316145b6109c25760405162461bcd60e51b815260206004820152601e60248201527f45524332305065726d69743a20696e76616c6964207369676e617475726500006044820152606401610588565b6109cd8a8a8a610a89565b5050505050505050505050565b6109e2610af2565b6001600160a01b038116610a0c57604051631e4fbdf760e01b815260006004820152602401610588565b610a1581610f91565b50565b610a20610af2565b600854604080516001600160a01b03928316815291831660208301527f3b0007eb941cf645526cbb3a4fdaecda9d28ce4843167d9263b536a1f1edc0f6910160405180910390a1600880546001600160a01b0319166001600160a01b0392909216919091179055565b6001600160a01b03838116600081815260026020908152604080832094871680845294825280832086905551858152919392917f8c5be1e5ebec7d5bd14f71427d1e84f3dd0314c0f7b2291e5b200ac8c7c3b92591015b60405180910390a35060019392505050565b6007546001600160a01b031633146107855760405163118cdaa760e01b8152336004820152602401610588565b6001600160a01b038316610b455760405162461bcd60e51b8152600401610588906114a4565b6040516370a0823160e01b815230600482015281906001600160a01b038416906370a0823190602401602060405180830381865afa158015610b8b573d6000803e3d6000fd5b505050506040513d601f19601f82011682018060405250810190610baf91906114c7565b106104fc57610bc86001600160a01b0383168483610fe3565b816001600160a01b0316836001600160a01b03167f6c9d637297625e945b296ff73a71fcfbd0a9e062652b6491a921c4c60194176b83604051610c0d91815260200190565b60405180910390a3505050565b6001600160a01b038316600090815260016020526040812054821115610c825760405162461bcd60e51b815260206004820152601b60248201527f45524332303a20496e73756666696369656e742062616c616e636500000000006044820152606401610588565b6001600160a01b038416600090815260016020526040902054610ca690839061142c565b6001600160a01b038086166000908152600160205260408082209390935590851681522054610cd690839061143f565b6001600160a01b0380851660008181526001602052604090819020939093559151908616907fddf252ad1be2c89b69c2b068fc378daa952ba7f163c4a11628f55a4df523b3ef90610ae09086815260200190565b6001600160a01b038316610d505760405162461bcd60e51b8152600401610588906114a4565b6040516331a9108f60e11b81526004810182905230906001600160a01b03841690636352211e90602401602060405180830381865afa158015610d97573d6000803e3d6000fd5b505050506040513d601f19601f82011682018060405250810190610dbb91906114e0565b6001600160a01b0316036104fc576040516323b872dd60e01b81523060048201526001600160a01b038481166024830152604482018390528316906323b872dd90606401600060405180830381600087803b158015610e1957600080fd5b505af1158015610e2d573d6000803e3d6000fd5b5050505080826001600160a01b0316846001600160a01b03167ffefe036cac4ee3a4aca074a81cbcc4376e1484693289078dbec149c890101d5b60405160405180910390a4505050565b6001600160a01b038216600090815260016020526040902054610e9b90829061143f565b6001600160a01b03831660009081526001602052604081209190915554610ec390829061143f565b60009081556040518281526001600160a01b03841691907fddf252ad1be2c89b69c2b068fc378daa952ba7f163c4a11628f55a4df523b3ef9060200160405180910390a35050565b6001600160a01b038216610f315760405162461bcd60e51b8152600401610588906114a4565b80471061076f57610f4b6001600160a01b03831682611035565b816001600160a01b03167eddb683bb45cd5d0ad8a200c6fae7152b1c236ee90a4a37db692407f5cc38bd82604051610f8591815260200190565b60405180910390a25050565b600780546001600160a01b038381166001600160a01b0319831681179093556040519116919082907f8be0079c531659141344cd1fd0a4f28419497f9722a3daafe3b4186f6b6457e090600090a35050565b604080516001600160a01b038416602482015260448082018490528251808303909101815260649091019091526020810180516001600160e01b031663a9059cbb60e01b1790526104fc9084906110cc565b804710156110585760405163cd78605960e01b8152306004820152602401610588565b6000826001600160a01b03168260405160006040518083038185875af1925050503d80600081146110a5576040519150601f19603f3d011682016040523d82523d6000602084013e6110aa565b606091505b50509050806104fc57604051630a12f52160e11b815260040160405180910390fd5b60006110e16001600160a01b0384168361112f565b9050805160001415801561110657508080602001905181019061110491906114fd565b155b156104fc57604051635274afe760e01b81526001600160a01b0384166004820152602401610588565b60606104e08383600084600080856001600160a01b03168486604051611155919061151f565b60006040518083038185875af1925050503d8060008114611192576040519150601f19603f3d011682016040523d82523d6000602084013e611197565b606091505b50915091506111a78683836111b1565b9695505050505050565b6060826111c6576111c18261120d565b6105b6565b81511580156111dd57506001600160a01b0384163b155b1561120657604051639996b31560e01b81526001600160a01b0385166004820152602401610588565b50806105b6565b80511561121d5780518082602001fd5b604051630a12f52160e11b815260040160405180910390fd5b60005b83811015611251578181015183820152602001611239565b50506000910152565b6020815260008251806020840152611279816040850160208701611236565b601f01601f19169190910160400192915050565b6001600160a01b0381168114610a1557600080fd5b600080604083850312156112b557600080fd5b82356112c08161128d565b946020939093013593505050565b6000806000606084860312156112e357600080fd5b83356112ee8161128d565b925060208401356112fe8161128d565b929592945050506040919091013590565b60006020828403121561132157600080fd5b81356105b68161128d565b600080600080600080600060e0888a03121561134757600080fd5b87356113528161128d565b965060208801356113628161128d565b95506040880135945060608801359350608088013560ff8116811461138657600080fd5b9699959850939692959460a0840135945060c09093013592915050565b600080604083850312156113b657600080fd5b82356113c18161128d565b915060208301356113d18161128d565b809150509250929050565b600181811c908216806113f057607f821691505b60208210810361141057634e487b7160e01b600052602260045260246000fd5b50919050565b634e487b7160e01b600052601160045260246000fd5b818103818111156104e3576104e3611416565b808201808211156104e3576104e3611416565b80820281158282048414176104e3576104e3611416565b60008261148657634e487b7160e01b600052601260045260246000fd5b500490565b60006001820161149d5761149d611416565b5060010190565b6020808252600990820152684248503a452d34303360b81b604082015260600190565b6000602082840312156114d957600080fd5b5051919050565b6000602082840312156114f257600080fd5b81516105b68161128d565b60006020828403121561150f57600080fd5b815180151581146105b657600080fd5b60008251611531818460208701611236565b919091019291505056fea26469706673582212202c65249f80c8a9ee2166c2c6019c9c04654cac2069ef7b59314090556c537ef864736f6c63430008180033",
  "devdoc": {
    "errors": {
      "AddressEmptyCode(address)": [
        {
          "details": "There's no code at `target` (it is not a contract)."
        }
      ],
      "AddressInsufficientBalance(address)": [
        {
          "details": "The ETH balance of the account is not enough to perform the operation."
        }
      ],
      "FailedInnerCall()": [
        {
          "details": "A call to an address target failed. The target may have reverted."
        }
      ],
      "OwnableInvalidOwner(address)": [
        {
          "details": "The owner is not a valid owner account. (eg. `address(0)`)"
        }
      ],
      "OwnableUnauthorizedAccount(address)": [
        {
          "details": "The caller account is not authorized to perform an operation."
        }
      ],
      "SafeERC20FailedOperation(address)": [
        {
          "details": "An operation with an ERC20 token failed."
        }
      ]
    },
    "events": {
      "Approval(address,address,uint256)": {
        "details": "Emitted when the allowance of a `spender` for an `owner` is set by a call to {approve}. `value` is the new allowance."
      },
      "Transfer(address,address,uint256)": {
        "details": "Emitted when `value` tokens are moved from one account (`from`) to another (`to`). Note that `value` may be zero."
      }
    },
    "kind": "dev",
    "methods": {
      "allowance(address,address)": {
        "details": "Returns the remaining number of tokens that `spender` will be allowed to spend on behalf of `owner` through {transferFrom}. This is zero by default. This value changes when {approve} or {transferFrom} are called."
      },
      "mint(address,uint256)": {
        "params": {
          "amount": "The number of tokens to be minted",
          "receiver": "The address of the destination account"
        }
      },
      "owner()": {
        "details": "Returns the address of the current owner."
      },
      "permit(address,address,uint256,uint256,uint8,bytes32,bytes32)": {
        "details": "See {IERC2612-permit}. In cases where the free option is not a concern, deadline can simply be set to uint(-1), so it should be seen as an optional parameter"
      },
      "renounceOwnership()": {
        "details": "Leaves the contract without owner. It will not be possible to call `onlyOwner` functions. Can only be called by the current owner. NOTE: Renouncing ownership will leave the contract without an owner, thereby disabling any functionality that is only available to the owner."
      },
      "setMinter(address)": {
        "params": {
          "newMinter": "The address of the new minter"
        }
      },
      "totalSupply()": {
        "details": "Returns the amount of tokens in existence."
      },
      "transferOwnership(address)": {
        "details": "Transfers ownership of the contract to a new account (`newOwner`). Can only be called by the current owner."
      },
      "version()": {
        "details": "Setting the version as a function so that it can be overriden"
      }
    },
    "version": 1
  },
  "userdoc": {
    "events": {
      "MinterChanged(address,address)": {
        "notice": "An event thats emitted when the minter address is changed"
      }
    },
    "kind": "user",
    "methods": {
      "INFLATION_CAP()": {
        "notice": "Cap on the percentage of totalSupply that can be minted at each mint"
      },
      "INFLATION_EPOCH()": {
        "notice": "Minimum time between mints"
      },
      "INITIAL_SUPPLY()": {
        "notice": "Total number of tokens in circulation"
      },
      "mint(address,uint256)": {
        "notice": "Mint new tokens"
      },
      "minter()": {
        "notice": "Address which may mint new tokens"
      },
      "mintingAllowedAfter()": {
        "notice": "The timestamp after which minting may occur"
      },
      "setMinter(address)": {
        "notice": "Change the minter address"
      }
    },
    "version": 1
  },
  "storageLayout": {
    "storage": [
      {
        "astId": 4829,
        "contract": "contracts/Ionx.sol:Ionx",
        "label": "_totalSupply",
        "offset": 0,
        "slot": "0",
        "type": "t_uint256"
      },
      {
        "astId": 4833,
        "contract": "contracts/Ionx.sol:Ionx",
        "label": "_balanceOf",
        "offset": 0,
        "slot": "1",
        "type": "t_mapping(t_address,t_uint256)"
      },
      {
        "astId": 4839,
        "contract": "contracts/Ionx.sol:Ionx",
        "label": "_allowance",
        "offset": 0,
        "slot": "2",
        "type": "t_mapping(t_address,t_mapping(t_address,t_uint256))"
      },
      {
        "astId": 4841,
        "contract": "contracts/Ionx.sol:Ionx",
        "label": "symbol",
        "offset": 0,
        "slot": "3",
        "type": "t_string_storage"
      },
      {
        "astId": 4844,
        "contract": "contracts/Ionx.sol:Ionx",
        "label": "decimals",
        "offset": 0,
        "slot": "4",
        "type": "t_uint256"
      },
      {
        "astId": 4847,
        "contract": "contracts/Ionx.sol:Ionx",
        "label": "name",
        "offset": 0,
        "slot": "5",
        "type": "t_string_storage"
      },
      {
        "astId": 8991,
        "contract": "contracts/Ionx.sol:Ionx",
        "label": "nonces",
        "offset": 0,
        "slot": "6",
        "type": "t_mapping(t_address,t_uint256)"
      },
      {
        "astId": 129,
        "contract": "contracts/Ionx.sol:Ionx",
        "label": "_owner",
        "offset": 0,
        "slot": "7",
        "type": "t_address"
      },
      {
        "astId": 5270,
        "contract": "contracts/Ionx.sol:Ionx",
        "label": "minter",
        "offset": 0,
        "slot": "8",
        "type": "t_address"
      },
      {
        "astId": 5273,
        "contract": "contracts/Ionx.sol:Ionx",
        "label": "mintingAllowedAfter",
        "offset": 0,
        "slot": "9",
        "type": "t_uint256"
      }
    ],
    "types": {
      "t_address": {
        "encoding": "inplace",
        "label": "address",
        "numberOfBytes": "20"
      },
      "t_mapping(t_address,t_mapping(t_address,t_uint256))": {
        "encoding": "mapping",
        "key": "t_address",
        "label": "mapping(address => mapping(address => uint256))",
        "numberOfBytes": "32",
        "value": "t_mapping(t_address,t_uint256)"
      },
      "t_mapping(t_address,t_uint256)": {
        "encoding": "mapping",
        "key": "t_address",
        "label": "mapping(address => uint256)",
        "numberOfBytes": "32",
        "value": "t_uint256"
      },
      "t_string_storage": {
        "encoding": "bytes",
        "label": "string",
        "numberOfBytes": "32"
      },
      "t_uint256": {
        "encoding": "inplace",
        "label": "uint256",
        "numberOfBytes": "32"
      }
    }
  }
}