{
  "address": "0x0a0e8d008Ac240D0d4893638edD7131991207673",
  "abi": [
    {
      "inputs": [
        {
          "internalType": "contract IERC20",
          "name": "token",
          "type": "address"
        },
        {
          "internalType": "address",
          "name": "bridge",
          "type": "address"
        },
        {
          "internalType": "address",
          "name": "liquidityProvider",
          "type": "address"
        }
      ],
      "stateMutability": "nonpayable",
      "type": "constructor"
    },
    {
      "inputs": [
        {
          "internalType": "address",
          "name": "target",
          "type": "address"
        }
      ],
      "name": "AddressEmptyCode",
      "type": "error"
    },
    {
      "inputs": [
        {
          "internalType": "address",
          "name": "account",
          "type": "address"
        }
      ],
      "name": "AddressInsufficientBalance",
      "type": "error"
    },
    {
      "inputs": [],
      "name": "BridgeAddressZero",
      "type": "error"
    },
    {
      "inputs": [],
      "name": "FailedInnerCall",
      "type": "error"
    },
    {
      "inputs": [
        {
          "internalType": "address",
          "name": "caller",
          "type": "address"
        },
        {
          "internalType": "address",
          "name": "bridge",
          "type": "address"
        }
      ],
      "name": "IsNotBridge",
      "type": "error"
    },
    {
      "inputs": [
        {
          "internalType": "address",
          "name": "account",
          "type": "address"
        },
        {
          "internalType": "address",
          "name": "liquidityProvider",
          "type": "address"
        }
      ],
      "name": "IsNotLiquidityProvider",
      "type": "error"
    },
    {
      "inputs": [],
      "name": "LiquidityProviderAddressZero",
      "type": "error"
    },
    {
      "inputs": [
        {
          "internalType": "uint256",
          "name": "amount",
          "type": "uint256"
        },
        {
          "internalType": "address",
          "name": "bridge",
          "type": "address"
        }
      ],
      "name": "NoAmountToLock",
      "type": "error"
    },
    {
      "inputs": [
        {
          "internalType": "uint256",
          "name": "amountoRelease",
          "type": "uint256"
        },
        {
          "internalType": "uint256",
          "name": "liquidity",
          "type": "uint256"
        }
      ],
      "name": "NoMoreLiquidity",
      "type": "error"
    },
    {
      "inputs": [
        {
          "internalType": "address",
          "name": "owner",
          "type": "address"
        }
      ],
      "name": "OwnableInvalidOwner",
      "type": "error"
    },
    {
      "inputs": [
        {
          "internalType": "address",
          "name": "account",
          "type": "address"
        }
      ],
      "name": "OwnableUnauthorizedAccount",
      "type": "error"
    },
    {
      "inputs": [
        {
          "internalType": "address",
          "name": "token",
          "type": "address"
        }
      ],
      "name": "SafeERC20FailedOperation",
      "type": "error"
    },
    {
      "anonymous": false,
      "inputs": [
        {
          "indexed": true,
          "internalType": "address",
          "name": "oldBridge",
          "type": "address"
        },
        {
          "indexed": true,
          "internalType": "address",
          "name": "newBridge",
          "type": "address"
        },
        {
          "indexed": true,
          "internalType": "address",
          "name": "owner",
          "type": "address"
        }
      ],
      "name": "BridgeSet",
      "type": "event"
    },
    {
      "anonymous": false,
      "inputs": [
        {
          "indexed": true,
          "internalType": "address",
          "name": "sender",
          "type": "address"
        },
        {
          "indexed": false,
          "internalType": "uint256",
          "name": "amount",
          "type": "uint256"
        }
      ],
      "name": "Burned",
      "type": "event"
    },
    {
      "anonymous": false,
      "inputs": [
        {
          "indexed": true,
          "internalType": "address",
          "name": "provider",
          "type": "address"
        },
        {
          "indexed": false,
          "internalType": "uint256",
          "name": "amount",
          "type": "uint256"
        }
      ],
      "name": "LiquidityProvided",
      "type": "event"
    },
    {
      "anonymous": false,
      "inputs": [
        {
          "indexed": true,
          "internalType": "address",
          "name": "oldLiquidityProvider",
          "type": "address"
        },
        {
          "indexed": true,
          "internalType": "address",
          "name": "newLiquidityProvider",
          "type": "address"
        },
        {
          "indexed": true,
          "internalType": "address",
          "name": "owner",
          "type": "address"
        }
      ],
      "name": "LiquidityProviderSet",
      "type": "event"
    },
    {
      "anonymous": false,
      "inputs": [
        {
          "indexed": true,
          "internalType": "address",
          "name": "provider",
          "type": "address"
        },
        {
          "indexed": false,
          "internalType": "uint256",
          "name": "amount",
          "type": "uint256"
        }
      ],
      "name": "LiquidityWithdrawn",
      "type": "event"
    },
    {
      "anonymous": false,
      "inputs": [
        {
          "indexed": true,
          "internalType": "address",
          "name": "sender",
          "type": "address"
        },
        {
          "indexed": false,
          "internalType": "uint256",
          "name": "amount",
          "type": "uint256"
        }
      ],
      "name": "Locked",
      "type": "event"
    },
    {
      "anonymous": false,
      "inputs": [
        {
          "indexed": true,
          "internalType": "address",
          "name": "sender",
          "type": "address"
        },
        {
          "indexed": true,
          "internalType": "address",
          "name": "receiver",
          "type": "address"
        },
        {
          "indexed": false,
          "internalType": "uint256",
          "name": "amount",
          "type": "uint256"
        }
      ],
      "name": "Minted",
      "type": "event"
    },
    {
      "anonymous": false,
      "inputs": [
        {
          "indexed": true,
          "internalType": "address",
          "name": "previousOwner",
          "type": "address"
        },
        {
          "indexed": true,
          "internalType": "address",
          "name": "newOwner",
          "type": "address"
        }
      ],
      "name": "OwnershipTransferStarted",
      "type": "event"
    },
    {
      "anonymous": false,
      "inputs": [
        {
          "indexed": true,
          "internalType": "address",
          "name": "previousOwner",
          "type": "address"
        },
        {
          "indexed": true,
          "internalType": "address",
          "name": "newOwner",
          "type": "address"
        }
      ],
      "name": "OwnershipTransferred",
      "type": "event"
    },
    {
      "anonymous": false,
      "inputs": [
        {
          "indexed": true,
          "internalType": "address",
          "name": "sender",
          "type": "address"
        },
        {
          "indexed": true,
          "internalType": "address",
          "name": "receiver",
          "type": "address"
        },
        {
          "indexed": false,
          "internalType": "uint256",
          "name": "amount",
          "type": "uint256"
        }
      ],
      "name": "Released",
      "type": "event"
    },
    {
      "inputs": [],
      "name": "acceptOwnership",
      "outputs": [],
      "stateMutability": "nonpayable",
      "type": "function"
    },
    {
      "inputs": [],
      "name": "getAvailableLiquidity",
      "outputs": [
        {
          "internalType": "uint256",
          "name": "liquidity",
          "type": "uint256"
        }
      ],
      "stateMutability": "view",
      "type": "function"
    },
    {
      "inputs": [],
      "name": "getBridge",
      "outputs": [
        {
          "internalType": "address",
          "name": "bridge",
          "type": "address"
        }
      ],
      "stateMutability": "view",
      "type": "function"
    },
    {
      "inputs": [],
      "name": "getLiquidityProvider",
      "outputs": [
        {
          "internalType": "address",
          "name": "liquidityProvider",
          "type": "address"
        }
      ],
      "stateMutability": "view",
      "type": "function"
    },
    {
      "inputs": [],
      "name": "getToken",
      "outputs": [
        {
          "internalType": "contract IERC20",
          "name": "token",
          "type": "address"
        }
      ],
      "stateMutability": "view",
      "type": "function"
    },
    {
      "inputs": [],
      "name": "getTokenPoolType",
      "outputs": [
        {
          "internalType": "enum IPool.TokenPoolType",
          "name": "tokenPoolType",
          "type": "uint8"
        }
      ],
      "stateMutability": "view",
      "type": "function"
    },
    {
      "inputs": [
        {
          "internalType": "uint256",
          "name": "amount",
          "type": "uint256"
        }
      ],
      "name": "lockOrBurn",
      "outputs": [],
      "stateMutability": "nonpayable",
      "type": "function"
    },
    {
      "inputs": [],
      "name": "owner",
      "outputs": [
        {
          "internalType": "address",
          "name": "",
          "type": "address"
        }
      ],
      "stateMutability": "view",
      "type": "function"
    },
    {
      "inputs": [],
      "name": "pendingOwner",
      "outputs": [
        {
          "internalType": "address",
          "name": "",
          "type": "address"
        }
      ],
      "stateMutability": "view",
      "type": "function"
    },
    {
      "inputs": [
        {
          "internalType": "uint256",
          "name": "amount",
          "type": "uint256"
        }
      ],
      "name": "provideLiquidity",
      "outputs": [],
      "stateMutability": "nonpayable",
      "type": "function"
    },
    {
      "inputs": [
        {
          "internalType": "uint256",
          "name": "amount",
          "type": "uint256"
        },
        {
          "internalType": "address",
          "name": "receiver",
          "type": "address"
        }
      ],
      "name": "releaseOrMint",
      "outputs": [],
      "stateMutability": "nonpayable",
      "type": "function"
    },
    {
      "inputs": [],
      "name": "removeBridge",
      "outputs": [],
      "stateMutability": "nonpayable",
      "type": "function"
    },
    {
      "inputs": [],
      "name": "removeLiquidityProvider",
      "outputs": [],
      "stateMutability": "nonpayable",
      "type": "function"
    },
    {
      "inputs": [],
      "name": "renounceOwnership",
      "outputs": [],
      "stateMutability": "nonpayable",
      "type": "function"
    },
    {
      "inputs": [],
      "name": "s_cachedLiquidity",
      "outputs": [
        {
          "internalType": "uint256",
          "name": "",
          "type": "uint256"
        }
      ],
      "stateMutability": "view",
      "type": "function"
    },
    {
      "inputs": [
        {
          "internalType": "address",
          "name": "bridge",
          "type": "address"
        }
      ],
      "name": "setBridge",
      "outputs": [],
      "stateMutability": "nonpayable",
      "type": "function"
    },
    {
      "inputs": [
        {
          "internalType": "address",
          "name": "liquidityProvider",
          "type": "address"
        }
      ],
      "name": "setLiquidityProvider",
      "outputs": [],
      "stateMutability": "nonpayable",
      "type": "function"
    },
    {
      "inputs": [
        {
          "internalType": "address",
          "name": "newOwner",
          "type": "address"
        }
      ],
      "name": "transferOwnership",
      "outputs": [],
      "stateMutability": "nonpayable",
      "type": "function"
    },
    {
      "inputs": [
        {
          "internalType": "uint256",
          "name": "amount",
          "type": "uint256"
        }
      ],
      "name": "withdrawLiquidity",
      "outputs": [],
      "stateMutability": "nonpayable",
      "type": "function"
    }
  ],
  "transactionHash": "0xb1feea1f844f5506488eb83037ce230cbf8352518a5edb40962b164af37c460b",
  "args": [
    "0x223CF0565eB33fC48861aCd1AA8b8eDacEab4024",
    "0xD1A159C98003fdc1d55556332cA995873eE439bE",
    "0xb8D175F16742395F530e0b3bC1d30BD06B78CdA9"
  ],
  "numDeployments": 1,
  "solcInputHash": "d857480a90d34cfbf00dcc818a263389",
  "bytecode": "0x60c06040523480156200001157600080fd5b506040516200113a3803806200113a8339810160408190526200003491620001f1565b8260008333806200005f57604051631e4fbdf760e01b81526000600482015260240160405180910390fd5b6200006a816200016d565b506001600160a01b0383166080528160018111156200008d576200008d62000245565b60a0816001811115620000a457620000a462000245565b9052506001600160a01b038116156200010457600280546001600160a01b0319166001600160a01b0383169081179091556040513391906000907f89471ea472ebde5b139ae048d7199129059cd8b03c7480c88e7048ca67dde5e1908290a45b5050506001600160a01b038116156200016457600380546001600160a01b0319166001600160a01b0383169081179091556040513391906000907fae2f80e594729d524205a499426a28812b53809921de1259ca33dac753a92bd3908290a45b5050506200025b565b600180546001600160a01b031916905562000188816200018b565b50565b600080546001600160a01b038381166001600160a01b0319831681178455604051919092169283917f8be0079c531659141344cd1fd0a4f28419497f9722a3daafe3b4186f6b6457e09190a35050565b6001600160a01b03811681146200018857600080fd5b6000806000606084860312156200020757600080fd5b83516200021481620001db565b60208501519093506200022781620001db565b60408501519092506200023a81620001db565b809150509250925092565b634e487b7160e01b600052602160045260246000fd5b60805160a051610e8f620002ab60003960006101bf0152600081816101860152818161032a01528181610547015281816106ed015281816108a4015281816109670152610a890152610e8f6000f3fe608060405234801561001057600080fd5b50600436106101215760003560e01c80638da5cb5b116100ad578063e30c397811610071578063e30c39781461024b578063e624c4bc1461025c578063eb521a4c1461026f578063eef929b714610282578063f2fde38b1461028a57600080fd5b80638da5cb5b146101fb5780638dd148021461020c5780639b745aec1461021f578063d569b55c14610227578063e2a72cce1461023a57600080fd5b806321df0da7116100f457806321df0da714610184578063503c2858146101aa57806364c0b2eb146101bd578063715018a6146101eb57806379ba5097146101f357600080fd5b80630a861f2a146101265780630fffbaf31461013b5780631a6f4f9d146101655780631acceb981461017c575b600080fd5b610139610134366004610d2a565b61029d565b005b6002546001600160a01b03165b6040516001600160a01b0390911681526020015b60405180910390f35b61016e60045481565b60405190815260200161015c565b610139610393565b7f0000000000000000000000000000000000000000000000000000000000000000610148565b6101396101b8366004610d2a565b6103f9565b7f000000000000000000000000000000000000000000000000000000000000000060405161015c9190610d43565b610139610442565b610139610456565b6000546001600160a01b0316610148565b61013961021a366004610d87565b610497565b61016e61052f565b610139610235366004610da2565b6105bf565b6003546001600160a01b0316610148565b6001546001600160a01b0316610148565b61013961026a366004610d87565b610609565b61013961027d366004610d2a565b6106a0565b610139610755565b610139610298366004610d87565b6107ba565b6003546001600160a01b031633146102e25760035460405163013910e560e01b81523360048201526001600160a01b0390911660248201526044015b60405180910390fd5b80806102ec61052f565b101561031d57806102fb61052f565b604051638afa05b760e01b8152600481019290925260248201526044016102d9565b6103516001600160a01b037f000000000000000000000000000000000000000000000000000000000000000016338461082b565b61035961088f565b60405182815233907fb1cce8684b4ffa8667b4577654e61ee3480d661ee9c27522ac80e211f6bd4d25906020015b60405180910390a25050565b61039b61091c565b6002546001600160a01b031680156103f657600280546001600160a01b031916905560405133906000906001600160a01b038416907f89471ea472ebde5b139ae048d7199129059cd8b03c7480c88e7048ca67dde5e1908390a45b50565b6002546001600160a01b031633146104395760025460405163f5e5683760e01b81523360048201526001600160a01b0390911660248201526044016102d9565b6103f681610949565b61044a61091c565b6104546000610a4a565b565b60015433906001600160a01b0316811461048e5760405163118cdaa760e01b81526001600160a01b03821660048201526024016102d9565b6103f681610a4a565b61049f61091c565b6001600160a01b0381166104c657604051637fc2831760e01b815260040160405180910390fd5b6002546001600160a01b03908116908216811461052b57600280546001600160a01b0319166001600160a01b0384811691821790925560405133928416907f89471ea472ebde5b139ae048d7199129059cd8b03c7480c88e7048ca67dde5e190600090a45b5050565b6040516370a0823160e01b81523060048201526000907f00000000000000000000000000000000000000000000000000000000000000006001600160a01b0316906370a0823190602401602060405180830381865afa158015610596573d6000803e3d6000fd5b505050506040513d601f19601f820116820180604052508101906105ba9190610dce565b905090565b6002546001600160a01b031633146105ff5760025460405163f5e5683760e01b81523360048201526001600160a01b0390911660248201526044016102d9565b61052b8282610a63565b61061161091c565b6001600160a01b03811661063857604051637efde79360e01b815260040160405180910390fd5b6003546001600160a01b03908116908216811461052b57600380546001600160a01b0319166001600160a01b0384811691821790925560405133928416907fae2f80e594729d524205a499426a28812b53809921de1259ca33dac753a92bd390600090a45050565b6003546001600160a01b031633146106e05760035460405163013910e560e01b81523360048201526001600160a01b0390911660248201526044016102d9565b6107156001600160a01b037f000000000000000000000000000000000000000000000000000000000000000016333084610afd565b61071d61088f565b60405181815233907fccb2ae3a2936bf4c94fa4e12cdf0cdad6ed0e4888a044cef89afa60f2e4b92d39060200160405180910390a250565b61075d61091c565b6003546001600160a01b031680156103f657600380546001600160a01b031916905560405133906000906001600160a01b038416907fae2f80e594729d524205a499426a28812b53809921de1259ca33dac753a92bd3908390a450565b6107c261091c565b600180546001600160a01b0383166001600160a01b031990911681179091556107f36000546001600160a01b031690565b6001600160a01b03167f38d16b8cac22d99fc7c124b9cd0de2d3fa1faef420bfe791d8c362d765e2270060405160405180910390a350565b6040516001600160a01b0383811660248301526044820183905261088a91859182169063a9059cbb906064015b604051602081830303815290604052915060e01b6020820180516001600160e01b038381831617835250505050610b3c565b505050565b6040516370a0823160e01b81523060048201527f00000000000000000000000000000000000000000000000000000000000000006001600160a01b0316906370a0823190602401602060405180830381865afa1580156108f3573d6000803e3d6000fd5b505050506040513d601f19601f820116820180604052508101906109179190610dce565b600455565b6000546001600160a01b031633146104545760405163118cdaa760e01b81523360048201526024016102d9565b600480546040516370a0823160e01b815230928101929092526000917f00000000000000000000000000000000000000000000000000000000000000006001600160a01b0316906370a0823190602401602060405180830381865afa1580156109b6573d6000803e3d6000fd5b505050506040513d601f19601f820116820180604052508101906109da9190610dce565b6109e49190610de7565b905080821115610a105760405163524507bf60e01b8152600481018390523360248201526044016102d9565b610a1861088f565b60405182815233907f9f1ec8c880f76798e7b793325d625e9b60e4082a553c98f42b6cda368dd6000890602001610387565b600180546001600160a01b03191690556103f681610b9f565b8180610a6d61052f565b1015610a7c57806102fb61052f565b610ab06001600160a01b037f000000000000000000000000000000000000000000000000000000000000000016838561082b565b610ab861088f565b6040518381526001600160a01b0383169033907f2d87480f50083e2b2759522a8fdda59802650a8055e609a7772cf70c07748f529060200160405180910390a3505050565b6040516001600160a01b038481166024830152838116604483015260648201839052610b369186918216906323b872dd90608401610858565b50505050565b6000610b516001600160a01b03841683610bef565b90508051600014158015610b76575080806020019051810190610b749190610e08565b155b1561088a57604051635274afe760e01b81526001600160a01b03841660048201526024016102d9565b600080546001600160a01b038381166001600160a01b0319831681178455604051919092169283917f8be0079c531659141344cd1fd0a4f28419497f9722a3daafe3b4186f6b6457e09190a35050565b6060610bfd83836000610c06565b90505b92915050565b606081471015610c2b5760405163cd78605960e01b81523060048201526024016102d9565b600080856001600160a01b03168486604051610c479190610e2a565b60006040518083038185875af1925050503d8060008114610c84576040519150601f19603f3d011682016040523d82523d6000602084013e610c89565b606091505b5091509150610c99868383610ca5565b925050505b9392505050565b606082610cba57610cb582610d01565b610c9e565b8151158015610cd157506001600160a01b0384163b155b15610cfa57604051639996b31560e01b81526001600160a01b03851660048201526024016102d9565b5080610c9e565b805115610d115780518082602001fd5b604051630a12f52160e11b815260040160405180910390fd5b600060208284031215610d3c57600080fd5b5035919050565b6020810160028310610d6557634e487b7160e01b600052602160045260246000fd5b91905290565b80356001600160a01b0381168114610d8257600080fd5b919050565b600060208284031215610d9957600080fd5b610bfd82610d6b565b60008060408385031215610db557600080fd5b82359150610dc560208401610d6b565b90509250929050565b600060208284031215610de057600080fd5b5051919050565b81810381811115610c0057634e487b7160e01b600052601160045260246000fd5b600060208284031215610e1a57600080fd5b81518015158114610c9e57600080fd5b6000825160005b81811015610e4b5760208186018101518583015201610e31565b50600092019182525091905056fea264697066735822122057f3cf88d2cad9b46f8be6cf9f5efba1894b83fc03dfe0113c9ca6723d2cb5aa64736f6c63430008180033",
  "devdoc": {
    "errors": {
      "AddressEmptyCode(address)": [
        {
          "details": "There's no code at `target` (it is not a contract)."
        }
      ],
      "AddressInsufficientBalance(address)": [
        {
          "details": "The ETH balance of the account is not enough to perform the operation."
        }
      ],
      "FailedInnerCall()": [
        {
          "details": "A call to an address target failed. The target may have reverted."
        }
      ],
      "OwnableInvalidOwner(address)": [
        {
          "details": "The owner is not a valid owner account. (eg. `address(0)`)"
        }
      ],
      "OwnableUnauthorizedAccount(address)": [
        {
          "details": "The caller account is not authorized to perform an operation."
        }
      ],
      "SafeERC20FailedOperation(address)": [
        {
          "details": "An operation with an ERC20 token failed."
        }
      ]
    },
    "kind": "dev",
    "methods": {
      "acceptOwnership()": {
        "details": "The new owner accepts the ownership transfer."
      },
      "getAvailableLiquidity()": {
        "returns": {
          "liquidity": "The available liquidity in the pool"
        }
      },
      "getBridge()": {
        "returns": {
          "bridge": "The bridge address"
        }
      },
      "getLiquidityProvider()": {
        "returns": {
          "liquidityProvider": "The liquidity provider address"
        }
      },
      "getToken()": {
        "returns": {
          "token": "The token of the pool"
        }
      },
      "getTokenPoolType()": {
        "returns": {
          "tokenPoolType": "The type of the token pool"
        }
      },
      "lockOrBurn(uint256)": {
        "params": {
          "amount": "The amount of tokens to lock or burn"
        }
      },
      "owner()": {
        "details": "Returns the address of the current owner."
      },
      "pendingOwner()": {
        "details": "Returns the address of the pending owner."
      },
      "provideLiquidity(uint256)": {
        "details": "Should transfer the liquidity from the sender to the pool. Emit LiquidityProvided event",
        "params": {
          "amount": "The amount of liquidity to provide"
        }
      },
      "releaseOrMint(uint256,address)": {
        "details": "For LockRelease token pool, if the pool is out of liquidity, it reverts.",
        "params": {
          "amount": "The amount of tokens to release or mint",
          "receiver": "The address to receive the released or minted tokens"
        }
      },
      "removeBridge()": {
        "details": "Emits the `BridgeSet` event with bridge as 0 address upon success."
      },
      "removeLiquidityProvider()": {
        "details": "Emits the `LiquidityProviderSet` event with liquidityProvider as 0 address upon success."
      },
      "renounceOwnership()": {
        "details": "Leaves the contract without owner. It will not be possible to call `onlyOwner` functions. Can only be called by the current owner. NOTE: Renouncing ownership will leave the contract without an owner, thereby disabling any functionality that is only available to the owner."
      },
      "setBridge(address)": {
        "details": "Emits the `BridgeSet` event upon success.",
        "params": {
          "account": "The account to set as the bridge."
        }
      },
      "setLiquidityProvider(address)": {
        "details": "Emits the `LiquidityProviderSet` event upon success.",
        "params": {
          "account": "The account to add as liquidity provider."
        }
      },
      "transferOwnership(address)": {
        "details": "Starts the ownership transfer of the contract to a new account. Replaces the pending transfer if there is one. Can only be called by the current owner."
      },
      "withdrawLiquidity(uint256)": {
        "details": "Should transfer the liquidity from the pool to the sender. Emit LiquidityWithdrawn event",
        "params": {
          "amount": "The amount of liquidity to withdraw"
        }
      }
    },
    "version": 1
  },
  "userdoc": {
    "kind": "user",
    "methods": {
      "getAvailableLiquidity()": {
        "notice": "Returns the available liquidity in the pool."
      },
      "getBridge()": {
        "notice": "Returns the bridge address."
      },
      "getLiquidityProvider()": {
        "notice": "Returns the liquidity provider."
      },
      "getToken()": {
        "notice": "Returns the token of the pool."
      },
      "getTokenPoolType()": {
        "notice": "Returns the type of the token pool."
      },
      "lockOrBurn(uint256)": {
        "notice": "Locks or burns the amount of tokens.The caller must have the role of locker for LockRelease token pool or burner for BurnMint token pool."
      },
      "provideLiquidity(uint256)": {
        "notice": "/**Provides liquidity to the pool. Can only be called by a liquidity provider"
      },
      "releaseOrMint(uint256,address)": {
        "notice": "Releases or mints the amount of tokens.The caller must have the role of unlocker for LockRelease token pool or minter for BurnMint token pool."
      },
      "removeBridge()": {
        "notice": "Removes the bridge. Only callable by the owner."
      },
      "removeLiquidityProvider()": {
        "notice": "Removes current liquidity provider. Only callable by the owner."
      },
      "setBridge(address)": {
        "notice": "Sets `account` as the bridge. Only callable by the owner."
      },
      "setLiquidityProvider(address)": {
        "notice": "Set `account` as a liquidity provider. Only callable by the owner."
      },
      "withdrawLiquidity(uint256)": {
        "notice": "Withdraws liquidity from the pool. Can only be called by a liquidity provider"
      }
    },
    "version": 1
  },
  "storageLayout": {
    "storage": [
      {
        "astId": 129,
        "contract": "contracts/pools/LockReleaseTokenPool.sol:LockReleaseTokenPool",
        "label": "_owner",
        "offset": 0,
        "slot": "0",
        "type": "t_address"
      },
      {
        "astId": 277,
        "contract": "contracts/pools/LockReleaseTokenPool.sol:LockReleaseTokenPool",
        "label": "_pendingOwner",
        "offset": 0,
        "slot": "1",
        "type": "t_address"
      },
      {
        "astId": 8766,
        "contract": "contracts/pools/LockReleaseTokenPool.sol:LockReleaseTokenPool",
        "label": "s_bridge",
        "offset": 0,
        "slot": "2",
        "type": "t_address"
      },
      {
        "astId": 8430,
        "contract": "contracts/pools/LockReleaseTokenPool.sol:LockReleaseTokenPool",
        "label": "s_liquidityProvider",
        "offset": 0,
        "slot": "3",
        "type": "t_address"
      },
      {
        "astId": 8432,
        "contract": "contracts/pools/LockReleaseTokenPool.sol:LockReleaseTokenPool",
        "label": "s_cachedLiquidity",
        "offset": 0,
        "slot": "4",
        "type": "t_uint256"
      }
    ],
    "types": {
      "t_address": {
        "encoding": "inplace",
        "label": "address",
        "numberOfBytes": "20"
      },
      "t_uint256": {
        "encoding": "inplace",
        "label": "uint256",
        "numberOfBytes": "32"
      }
    }
  }
}